{
	"contracts/TaskContract.sol": {
		"TaskContract": {
			"abi": [
				{
					"inputs": [],
					"name": "createTask",
					"outputs": [],
					"stateMutability": "nonpayable",
					"type": "function"
				},
				{
					"inputs": [
						{
							"internalType": "uint256",
							"name": "_id",
							"type": "uint256"
						}
					],
					"name": "readTask",
					"outputs": [
						{
							"internalType": "uint256",
							"name": "",
							"type": "uint256"
						},
						{
							"internalType": "string",
							"name": "",
							"type": "string"
						},
						{
							"internalType": "string",
							"name": "",
							"type": "string"
						}
					],
					"stateMutability": "view",
					"type": "function"
				}
			],
			"devdoc": {
				"kind": "dev",
				"methods": {},
				"version": 1
			},
			"evm": {
				"assembly": "    /* \"contracts/TaskContract.sol\":64:828  contract TaskContract {\r... */\n  mstore(0x40, 0x80)\n  callvalue\n  dup1\n  iszero\n  tag_1\n  jumpi\n  0x00\n  dup1\n  revert\ntag_1:\n  pop\n  dataSize(sub_0)\n  dup1\n  dataOffset(sub_0)\n  0x00\n  codecopy\n  0x00\n  return\nstop\n\nsub_0: assembly {\n        /* \"contracts/TaskContract.sol\":64:828  contract TaskContract {\r... */\n      mstore(0x40, 0x80)\n      callvalue\n      dup1\n      iszero\n      tag_1\n      jumpi\n      0x00\n      dup1\n      revert\n    tag_1:\n      pop\n      jumpi(tag_2, lt(calldatasize, 0x04))\n      shr(0xe0, calldataload(0x00))\n      dup1\n      0xa7476493\n      eq\n      tag_3\n      jumpi\n      dup1\n      0xab755faf\n      eq\n      tag_4\n      jumpi\n    tag_2:\n      0x00\n      dup1\n      revert\n        /* \"contracts/TaskContract.sol\":239:356  function createTask() public{\r... */\n    tag_3:\n      tag_5\n      tag_6\n      jump\t// in\n    tag_5:\n      stop\n        /* \"contracts/TaskContract.sol\":364:572  function readTask(uint _id) public view returns (uint, string memory, string memory){\r... */\n    tag_4:\n      tag_7\n      0x04\n      dup1\n      calldatasize\n      sub\n      dup2\n      add\n      swap1\n      tag_8\n      swap2\n      swap1\n      tag_9\n      jump\t// in\n    tag_8:\n      tag_10\n      jump\t// in\n    tag_7:\n      mload(0x40)\n      tag_11\n      swap4\n      swap3\n      swap2\n      swap1\n      tag_12\n      jump\t// in\n    tag_11:\n      mload(0x40)\n      dup1\n      swap2\n      sub\n      swap1\n      return\n        /* \"contracts/TaskContract.sol\":239:356  function createTask() public{\r... */\n    tag_6:\n        /* \"contracts/TaskContract.sol\":278:283  tasks */\n      0x01\n        /* \"contracts/TaskContract.sol\":289:328  Task(nextId,'Limpiar','Con la escoba.') */\n      mload(0x40)\n      dup1\n      0x60\n      add\n      0x40\n      mstore\n      dup1\n        /* \"contracts/TaskContract.sol\":294:300  nextId */\n      sload(0x00)\n        /* \"contracts/TaskContract.sol\":289:328  Task(nextId,'Limpiar','Con la escoba.') */\n      dup2\n      mstore\n      0x20\n      add\n      mload(0x40)\n      dup1\n      0x40\n      add\n      0x40\n      mstore\n      dup1\n      0x07\n      dup2\n      mstore\n      0x20\n      add\n      0x4c696d7069617200000000000000000000000000000000000000000000000000\n      dup2\n      mstore\n      pop\n      dup2\n      mstore\n      0x20\n      add\n      mload(0x40)\n      dup1\n      0x40\n      add\n      0x40\n      mstore\n      dup1\n      0x0e\n      dup2\n      mstore\n      0x20\n      add\n      0x436f6e206c61206573636f62612e000000000000000000000000000000000000\n      dup2\n      mstore\n      pop\n      dup2\n      mstore\n      pop\n        /* \"contracts/TaskContract.sol\":278:329  tasks.push(Task(nextId,'Limpiar','Con la escoba.')) */\n      swap1\n      dup1\n      0x01\n      dup2\n      sload\n      add\n      dup1\n      dup3\n      sstore\n      dup1\n      swap2\n      pop\n      pop\n      0x01\n      swap1\n      sub\n      swap1\n      0x00\n      mstore\n      keccak256(0x00, 0x20)\n      swap1\n      0x03\n      mul\n      add\n      0x00\n      swap1\n      swap2\n      swap1\n      swap2\n      swap1\n      swap2\n      pop\n      0x00\n      dup3\n      add\n      mload\n      dup2\n      0x00\n      add\n      sstore\n      0x20\n      dup3\n      add\n      mload\n      dup2\n      0x01\n      add\n      swap1\n      dup1\n      mload\n      swap1\n      0x20\n      add\n      swap1\n      tag_15\n      swap3\n      swap2\n      swap1\n      tag_16\n      jump\t// in\n    tag_15:\n      pop\n      0x40\n      dup3\n      add\n      mload\n      dup2\n      0x02\n      add\n      swap1\n      dup1\n      mload\n      swap1\n      0x20\n      add\n      swap1\n      tag_17\n      swap3\n      swap2\n      swap1\n      tag_16\n      jump\t// in\n    tag_17:\n      pop\n      pop\n      pop\n        /* \"contracts/TaskContract.sol\":340:346  nextId */\n      0x00\n      dup1\n        /* \"contracts/TaskContract.sol\":340:348  nextId++ */\n      dup2\n      sload\n      dup1\n      swap3\n      swap2\n      swap1\n      tag_18\n      swap1\n      tag_19\n      jump\t// in\n    tag_18:\n      swap2\n      swap1\n      pop\n      sstore\n      pop\n        /* \"contracts/TaskContract.sol\":239:356  function createTask() public{\r... */\n      jump\t// out\n        /* \"contracts/TaskContract.sol\":364:572  function readTask(uint _id) public view returns (uint, string memory, string memory){\r... */\n    tag_10:\n        /* \"contracts/TaskContract.sol\":413:417  uint */\n      0x00\n        /* \"contracts/TaskContract.sol\":419:432  string memory */\n      0x60\n        /* \"contracts/TaskContract.sol\":434:447  string memory */\n      dup1\n        /* \"contracts/TaskContract.sol\":459:469  uint index */\n      0x00\n        /* \"contracts/TaskContract.sol\":472:486  findIndex(_id) */\n      tag_21\n        /* \"contracts/TaskContract.sol\":482:485  _id */\n      dup6\n        /* \"contracts/TaskContract.sol\":472:481  findIndex */\n      tag_22\n        /* \"contracts/TaskContract.sol\":472:486  findIndex(_id) */\n      jump\t// in\n    tag_21:\n        /* \"contracts/TaskContract.sol\":459:486  uint index = findIndex(_id) */\n      swap1\n      pop\n        /* \"contracts/TaskContract.sol\":505:510  tasks */\n      0x01\n        /* \"contracts/TaskContract.sol\":511:516  index */\n      dup2\n        /* \"contracts/TaskContract.sol\":505:517  tasks[index] */\n      dup2\n      sload\n      dup2\n      lt\n      tag_23\n      jumpi\n      tag_24\n      tag_25\n      jump\t// in\n    tag_24:\n    tag_23:\n      swap1\n      0x00\n      mstore\n      keccak256(0x00, 0x20)\n      swap1\n      0x03\n      mul\n      add\n        /* \"contracts/TaskContract.sol\":505:520  tasks[index].id */\n      0x00\n      add\n      sload\n        /* \"contracts/TaskContract.sol\":521:526  tasks */\n      0x01\n        /* \"contracts/TaskContract.sol\":527:532  index */\n      dup3\n        /* \"contracts/TaskContract.sol\":521:533  tasks[index] */\n      dup2\n      sload\n      dup2\n      lt\n      tag_27\n      jumpi\n      tag_28\n      tag_25\n      jump\t// in\n    tag_28:\n    tag_27:\n      swap1\n      0x00\n      mstore\n      keccak256(0x00, 0x20)\n      swap1\n      0x03\n      mul\n      add\n        /* \"contracts/TaskContract.sol\":521:538  tasks[index].name */\n      0x01\n      add\n        /* \"contracts/TaskContract.sol\":539:544  tasks */\n      0x01\n        /* \"contracts/TaskContract.sol\":545:550  index */\n      dup4\n        /* \"contracts/TaskContract.sol\":539:551  tasks[index] */\n      dup2\n      sload\n      dup2\n      lt\n      tag_30\n      jumpi\n      tag_31\n      tag_25\n      jump\t// in\n    tag_31:\n    tag_30:\n      swap1\n      0x00\n      mstore\n      keccak256(0x00, 0x20)\n      swap1\n      0x03\n      mul\n      add\n        /* \"contracts/TaskContract.sol\":539:563  tasks[index].description */\n      0x02\n      add\n        /* \"contracts/TaskContract.sol\":497:564  return (tasks[index].id,tasks[index].name,tasks[index].description) */\n      dup2\n      dup1\n      sload\n      tag_33\n      swap1\n      tag_34\n      jump\t// in\n    tag_33:\n      dup1\n      0x1f\n      add\n      0x20\n      dup1\n      swap2\n      div\n      mul\n      0x20\n      add\n      mload(0x40)\n      swap1\n      dup2\n      add\n      0x40\n      mstore\n      dup1\n      swap3\n      swap2\n      swap1\n      dup2\n      dup2\n      mstore\n      0x20\n      add\n      dup3\n      dup1\n      sload\n      tag_35\n      swap1\n      tag_34\n      jump\t// in\n    tag_35:\n      dup1\n      iszero\n      tag_36\n      jumpi\n      dup1\n      0x1f\n      lt\n      tag_37\n      jumpi\n      0x0100\n      dup1\n      dup4\n      sload\n      div\n      mul\n      dup4\n      mstore\n      swap2\n      0x20\n      add\n      swap2\n      jump(tag_36)\n    tag_37:\n      dup3\n      add\n      swap2\n      swap1\n      0x00\n      mstore\n      keccak256(0x00, 0x20)\n      swap1\n    tag_38:\n      dup2\n      sload\n      dup2\n      mstore\n      swap1\n      0x01\n      add\n      swap1\n      0x20\n      add\n      dup1\n      dup4\n      gt\n      tag_38\n      jumpi\n      dup3\n      swap1\n      sub\n      0x1f\n      and\n      dup3\n      add\n      swap2\n    tag_36:\n      pop\n      pop\n      pop\n      pop\n      pop\n      swap2\n      pop\n      dup1\n      dup1\n      sload\n      tag_39\n      swap1\n      tag_34\n      jump\t// in\n    tag_39:\n      dup1\n      0x1f\n      add\n      0x20\n      dup1\n      swap2\n      div\n      mul\n      0x20\n      add\n      mload(0x40)\n      swap1\n      dup2\n      add\n      0x40\n      mstore\n      dup1\n      swap3\n      swap2\n      swap1\n      dup2\n      dup2\n      mstore\n      0x20\n      add\n      dup3\n      dup1\n      sload\n      tag_40\n      swap1\n      tag_34\n      jump\t// in\n    tag_40:\n      dup1\n      iszero\n      tag_41\n      jumpi\n      dup1\n      0x1f\n      lt\n      tag_42\n      jumpi\n      0x0100\n      dup1\n      dup4\n      sload\n      div\n      mul\n      dup4\n      mstore\n      swap2\n      0x20\n      add\n      swap2\n      jump(tag_41)\n    tag_42:\n      dup3\n      add\n      swap2\n      swap1\n      0x00\n      mstore\n      keccak256(0x00, 0x20)\n      swap1\n    tag_43:\n      dup2\n      sload\n      dup2\n      mstore\n      swap1\n      0x01\n      add\n      swap1\n      0x20\n      add\n      dup1\n      dup4\n      gt\n      tag_43\n      jumpi\n      dup3\n      swap1\n      sub\n      0x1f\n      and\n      dup3\n      add\n      swap2\n    tag_41:\n      pop\n      pop\n      pop\n      pop\n      pop\n      swap1\n      pop\n      swap4\n      pop\n      swap4\n      pop\n      swap4\n      pop\n      pop\n        /* \"contracts/TaskContract.sol\":364:572  function readTask(uint _id) public view returns (uint, string memory, string memory){\r... */\n      swap2\n      swap4\n      swap1\n      swap3\n      pop\n      jump\t// out\n        /* \"contracts/TaskContract.sol\":583:821  function findIndex(uint _id) internal view returns (uint){\r... */\n    tag_22:\n        /* \"contracts/TaskContract.sol\":635:639  uint */\n      0x00\n        /* \"contracts/TaskContract.sol\":657:663  uint i */\n      dup1\n        /* \"contracts/TaskContract.sol\":664:665  0 */\n      0x00\n        /* \"contracts/TaskContract.sol\":657:665  uint i=0 */\n      swap1\n      pop\n        /* \"contracts/TaskContract.sol\":653:779  for(uint i=0; i < tasks.length;i++){\r... */\n    tag_45:\n        /* \"contracts/TaskContract.sol\":671:676  tasks */\n      0x01\n        /* \"contracts/TaskContract.sol\":671:683  tasks.length */\n      dup1\n      sload\n      swap1\n      pop\n        /* \"contracts/TaskContract.sol\":667:668  i */\n      dup2\n        /* \"contracts/TaskContract.sol\":667:683  i < tasks.length */\n      lt\n        /* \"contracts/TaskContract.sol\":653:779  for(uint i=0; i < tasks.length;i++){\r... */\n      iszero\n      tag_46\n      jumpi\n        /* \"contracts/TaskContract.sol\":721:724  _id */\n      dup3\n        /* \"contracts/TaskContract.sol\":706:711  tasks */\n      0x01\n        /* \"contracts/TaskContract.sol\":712:713  i */\n      dup3\n        /* \"contracts/TaskContract.sol\":706:714  tasks[i] */\n      dup2\n      sload\n      dup2\n      lt\n      tag_48\n      jumpi\n      tag_49\n      tag_25\n      jump\t// in\n    tag_49:\n    tag_48:\n      swap1\n      0x00\n      mstore\n      keccak256(0x00, 0x20)\n      swap1\n      0x03\n      mul\n      add\n        /* \"contracts/TaskContract.sol\":706:717  tasks[i].id */\n      0x00\n      add\n      sload\n        /* \"contracts/TaskContract.sol\":706:724  tasks[i].id == _id */\n      eq\n        /* \"contracts/TaskContract.sol\":703:768  if(tasks[i].id == _id){\r... */\n      iszero\n      tag_51\n      jumpi\n        /* \"contracts/TaskContract.sol\":751:752  i */\n      dup1\n        /* \"contracts/TaskContract.sol\":744:752  return i */\n      swap2\n      pop\n      pop\n      jump(tag_44)\n        /* \"contracts/TaskContract.sol\":703:768  if(tasks[i].id == _id){\r... */\n    tag_51:\n        /* \"contracts/TaskContract.sol\":684:687  i++ */\n      dup1\n      dup1\n      tag_52\n      swap1\n      tag_19\n      jump\t// in\n    tag_52:\n      swap2\n      pop\n      pop\n        /* \"contracts/TaskContract.sol\":653:779  for(uint i=0; i < tasks.length;i++){\r... */\n      jump(tag_45)\n    tag_46:\n      pop\n        /* \"contracts/TaskContract.sol\":789:813  revert('Task not Found') */\n      mload(0x40)\n      0x08c379a000000000000000000000000000000000000000000000000000000000\n      dup2\n      mstore\n      0x04\n      add\n      tag_53\n      swap1\n      tag_54\n      jump\t// in\n    tag_53:\n      mload(0x40)\n      dup1\n      swap2\n      sub\n      swap1\n      revert\n        /* \"contracts/TaskContract.sol\":583:821  function findIndex(uint _id) internal view returns (uint){\r... */\n    tag_44:\n      swap2\n      swap1\n      pop\n      jump\t// out\n    tag_16:\n      dup3\n      dup1\n      sload\n      tag_55\n      swap1\n      tag_34\n      jump\t// in\n    tag_55:\n      swap1\n      0x00\n      mstore\n      keccak256(0x00, 0x20)\n      swap1\n      0x1f\n      add\n      0x20\n      swap1\n      div\n      dup2\n      add\n      swap3\n      dup3\n      tag_57\n      jumpi\n      0x00\n      dup6\n      sstore\n      jump(tag_56)\n    tag_57:\n      dup3\n      0x1f\n      lt\n      tag_58\n      jumpi\n      dup1\n      mload\n      not(0xff)\n      and\n      dup4\n      dup1\n      add\n      or\n      dup6\n      sstore\n      jump(tag_56)\n    tag_58:\n      dup3\n      dup1\n      add\n      0x01\n      add\n      dup6\n      sstore\n      dup3\n      iszero\n      tag_56\n      jumpi\n      swap2\n      dup3\n      add\n    tag_59:\n      dup3\n      dup2\n      gt\n      iszero\n      tag_60\n      jumpi\n      dup3\n      mload\n      dup3\n      sstore\n      swap2\n      0x20\n      add\n      swap2\n      swap1\n      0x01\n      add\n      swap1\n      jump(tag_59)\n    tag_60:\n    tag_56:\n      pop\n      swap1\n      pop\n      tag_61\n      swap2\n      swap1\n      tag_62\n      jump\t// in\n    tag_61:\n      pop\n      swap1\n      jump\t// out\n    tag_62:\n    tag_63:\n      dup1\n      dup3\n      gt\n      iszero\n      tag_64\n      jumpi\n      0x00\n      dup2\n      0x00\n      swap1\n      sstore\n      pop\n      0x01\n      add\n      jump(tag_63)\n    tag_64:\n      pop\n      swap1\n      jump\t// out\n        /* \"#utility.yul\":7:146   */\n    tag_66:\n        /* \"#utility.yul\":53:58   */\n      0x00\n        /* \"#utility.yul\":91:97   */\n      dup2\n        /* \"#utility.yul\":78:98   */\n      calldataload\n        /* \"#utility.yul\":69:98   */\n      swap1\n      pop\n        /* \"#utility.yul\":107:140   */\n      tag_68\n        /* \"#utility.yul\":134:139   */\n      dup2\n        /* \"#utility.yul\":107:140   */\n      tag_69\n      jump\t// in\n    tag_68:\n        /* \"#utility.yul\":7:146   */\n      swap3\n      swap2\n      pop\n      pop\n      jump\t// out\n        /* \"#utility.yul\":152:481   */\n    tag_9:\n        /* \"#utility.yul\":211:217   */\n      0x00\n        /* \"#utility.yul\":260:262   */\n      0x20\n        /* \"#utility.yul\":248:257   */\n      dup3\n        /* \"#utility.yul\":239:246   */\n      dup5\n        /* \"#utility.yul\":235:258   */\n      sub\n        /* \"#utility.yul\":231:263   */\n      slt\n        /* \"#utility.yul\":228:347   */\n      iszero\n      tag_71\n      jumpi\n        /* \"#utility.yul\":266:345   */\n      tag_72\n      tag_73\n      jump\t// in\n    tag_72:\n        /* \"#utility.yul\":228:347   */\n    tag_71:\n        /* \"#utility.yul\":386:387   */\n      0x00\n        /* \"#utility.yul\":411:464   */\n      tag_74\n        /* \"#utility.yul\":456:463   */\n      dup5\n        /* \"#utility.yul\":447:453   */\n      dup3\n        /* \"#utility.yul\":436:445   */\n      dup6\n        /* \"#utility.yul\":432:454   */\n      add\n        /* \"#utility.yul\":411:464   */\n      tag_66\n      jump\t// in\n    tag_74:\n        /* \"#utility.yul\":401:464   */\n      swap2\n      pop\n        /* \"#utility.yul\":357:474   */\n      pop\n        /* \"#utility.yul\":152:481   */\n      swap3\n      swap2\n      pop\n      pop\n      jump\t// out\n        /* \"#utility.yul\":487:851   */\n    tag_75:\n        /* \"#utility.yul\":575:578   */\n      0x00\n        /* \"#utility.yul\":603:642   */\n      tag_77\n        /* \"#utility.yul\":636:641   */\n      dup3\n        /* \"#utility.yul\":603:642   */\n      tag_78\n      jump\t// in\n    tag_77:\n        /* \"#utility.yul\":658:729   */\n      tag_79\n        /* \"#utility.yul\":722:728   */\n      dup2\n        /* \"#utility.yul\":717:720   */\n      dup6\n        /* \"#utility.yul\":658:729   */\n      tag_80\n      jump\t// in\n    tag_79:\n        /* \"#utility.yul\":651:729   */\n      swap4\n      pop\n        /* \"#utility.yul\":738:790   */\n      tag_81\n        /* \"#utility.yul\":783:789   */\n      dup2\n        /* \"#utility.yul\":778:781   */\n      dup6\n        /* \"#utility.yul\":771:775   */\n      0x20\n        /* \"#utility.yul\":764:769   */\n      dup7\n        /* \"#utility.yul\":760:776   */\n      add\n        /* \"#utility.yul\":738:790   */\n      tag_82\n      jump\t// in\n    tag_81:\n        /* \"#utility.yul\":815:844   */\n      tag_83\n        /* \"#utility.yul\":837:843   */\n      dup2\n        /* \"#utility.yul\":815:844   */\n      tag_84\n      jump\t// in\n    tag_83:\n        /* \"#utility.yul\":810:813   */\n      dup5\n        /* \"#utility.yul\":806:845   */\n      add\n        /* \"#utility.yul\":799:845   */\n      swap2\n      pop\n        /* \"#utility.yul\":579:851   */\n      pop\n        /* \"#utility.yul\":487:851   */\n      swap3\n      swap2\n      pop\n      pop\n      jump\t// out\n        /* \"#utility.yul\":857:1223   */\n    tag_85:\n        /* \"#utility.yul\":999:1002   */\n      0x00\n        /* \"#utility.yul\":1020:1087   */\n      tag_87\n        /* \"#utility.yul\":1084:1086   */\n      0x0e\n        /* \"#utility.yul\":1079:1082   */\n      dup4\n        /* \"#utility.yul\":1020:1087   */\n      tag_80\n      jump\t// in\n    tag_87:\n        /* \"#utility.yul\":1013:1087   */\n      swap2\n      pop\n        /* \"#utility.yul\":1096:1189   */\n      tag_88\n        /* \"#utility.yul\":1185:1188   */\n      dup3\n        /* \"#utility.yul\":1096:1189   */\n      tag_89\n      jump\t// in\n    tag_88:\n        /* \"#utility.yul\":1214:1216   */\n      0x20\n        /* \"#utility.yul\":1209:1212   */\n      dup3\n        /* \"#utility.yul\":1205:1217   */\n      add\n        /* \"#utility.yul\":1198:1217   */\n      swap1\n      pop\n        /* \"#utility.yul\":857:1223   */\n      swap2\n      swap1\n      pop\n      jump\t// out\n        /* \"#utility.yul\":1229:1347   */\n    tag_90:\n        /* \"#utility.yul\":1316:1340   */\n      tag_92\n        /* \"#utility.yul\":1334:1339   */\n      dup2\n        /* \"#utility.yul\":1316:1340   */\n      tag_93\n      jump\t// in\n    tag_92:\n        /* \"#utility.yul\":1311:1314   */\n      dup3\n        /* \"#utility.yul\":1304:1341   */\n      mstore\n        /* \"#utility.yul\":1229:1347   */\n      pop\n      pop\n      jump\t// out\n        /* \"#utility.yul\":1353:1772   */\n    tag_54:\n        /* \"#utility.yul\":1519:1523   */\n      0x00\n        /* \"#utility.yul\":1557:1559   */\n      0x20\n        /* \"#utility.yul\":1546:1555   */\n      dup3\n        /* \"#utility.yul\":1542:1560   */\n      add\n        /* \"#utility.yul\":1534:1560   */\n      swap1\n      pop\n        /* \"#utility.yul\":1606:1615   */\n      dup2\n        /* \"#utility.yul\":1600:1604   */\n      dup2\n        /* \"#utility.yul\":1596:1616   */\n      sub\n        /* \"#utility.yul\":1592:1593   */\n      0x00\n        /* \"#utility.yul\":1581:1590   */\n      dup4\n        /* \"#utility.yul\":1577:1594   */\n      add\n        /* \"#utility.yul\":1570:1617   */\n      mstore\n        /* \"#utility.yul\":1634:1765   */\n      tag_95\n        /* \"#utility.yul\":1760:1764   */\n      dup2\n        /* \"#utility.yul\":1634:1765   */\n      tag_85\n      jump\t// in\n    tag_95:\n        /* \"#utility.yul\":1626:1765   */\n      swap1\n      pop\n        /* \"#utility.yul\":1353:1772   */\n      swap2\n      swap1\n      pop\n      jump\t// out\n        /* \"#utility.yul\":1778:2402   */\n    tag_12:\n        /* \"#utility.yul\":1967:1971   */\n      0x00\n        /* \"#utility.yul\":2005:2007   */\n      0x60\n        /* \"#utility.yul\":1994:2003   */\n      dup3\n        /* \"#utility.yul\":1990:2008   */\n      add\n        /* \"#utility.yul\":1982:2008   */\n      swap1\n      pop\n        /* \"#utility.yul\":2018:2089   */\n      tag_97\n        /* \"#utility.yul\":2086:2087   */\n      0x00\n        /* \"#utility.yul\":2075:2084   */\n      dup4\n        /* \"#utility.yul\":2071:2088   */\n      add\n        /* \"#utility.yul\":2062:2068   */\n      dup7\n        /* \"#utility.yul\":2018:2089   */\n      tag_90\n      jump\t// in\n    tag_97:\n        /* \"#utility.yul\":2136:2145   */\n      dup2\n        /* \"#utility.yul\":2130:2134   */\n      dup2\n        /* \"#utility.yul\":2126:2146   */\n      sub\n        /* \"#utility.yul\":2121:2123   */\n      0x20\n        /* \"#utility.yul\":2110:2119   */\n      dup4\n        /* \"#utility.yul\":2106:2124   */\n      add\n        /* \"#utility.yul\":2099:2147   */\n      mstore\n        /* \"#utility.yul\":2164:2242   */\n      tag_98\n        /* \"#utility.yul\":2237:2241   */\n      dup2\n        /* \"#utility.yul\":2228:2234   */\n      dup6\n        /* \"#utility.yul\":2164:2242   */\n      tag_75\n      jump\t// in\n    tag_98:\n        /* \"#utility.yul\":2156:2242   */\n      swap1\n      pop\n        /* \"#utility.yul\":2289:2298   */\n      dup2\n        /* \"#utility.yul\":2283:2287   */\n      dup2\n        /* \"#utility.yul\":2279:2299   */\n      sub\n        /* \"#utility.yul\":2274:2276   */\n      0x40\n        /* \"#utility.yul\":2263:2272   */\n      dup4\n        /* \"#utility.yul\":2259:2277   */\n      add\n        /* \"#utility.yul\":2252:2300   */\n      mstore\n        /* \"#utility.yul\":2317:2395   */\n      tag_99\n        /* \"#utility.yul\":2390:2394   */\n      dup2\n        /* \"#utility.yul\":2381:2387   */\n      dup5\n        /* \"#utility.yul\":2317:2395   */\n      tag_75\n      jump\t// in\n    tag_99:\n        /* \"#utility.yul\":2309:2395   */\n      swap1\n      pop\n        /* \"#utility.yul\":1778:2402   */\n      swap5\n      swap4\n      pop\n      pop\n      pop\n      pop\n      jump\t// out\n        /* \"#utility.yul\":2489:2588   */\n    tag_78:\n        /* \"#utility.yul\":2541:2547   */\n      0x00\n        /* \"#utility.yul\":2575:2580   */\n      dup2\n        /* \"#utility.yul\":2569:2581   */\n      mload\n        /* \"#utility.yul\":2559:2581   */\n      swap1\n      pop\n        /* \"#utility.yul\":2489:2588   */\n      swap2\n      swap1\n      pop\n      jump\t// out\n        /* \"#utility.yul\":2594:2763   */\n    tag_80:\n        /* \"#utility.yul\":2678:2689   */\n      0x00\n        /* \"#utility.yul\":2712:2718   */\n      dup3\n        /* \"#utility.yul\":2707:2710   */\n      dup3\n        /* \"#utility.yul\":2700:2719   */\n      mstore\n        /* \"#utility.yul\":2752:2756   */\n      0x20\n        /* \"#utility.yul\":2747:2750   */\n      dup3\n        /* \"#utility.yul\":2743:2757   */\n      add\n        /* \"#utility.yul\":2728:2757   */\n      swap1\n      pop\n        /* \"#utility.yul\":2594:2763   */\n      swap3\n      swap2\n      pop\n      pop\n      jump\t// out\n        /* \"#utility.yul\":2769:2846   */\n    tag_93:\n        /* \"#utility.yul\":2806:2813   */\n      0x00\n        /* \"#utility.yul\":2835:2840   */\n      dup2\n        /* \"#utility.yul\":2824:2840   */\n      swap1\n      pop\n        /* \"#utility.yul\":2769:2846   */\n      swap2\n      swap1\n      pop\n      jump\t// out\n        /* \"#utility.yul\":2852:3159   */\n    tag_82:\n        /* \"#utility.yul\":2920:2921   */\n      0x00\n        /* \"#utility.yul\":2930:3043   */\n    tag_106:\n        /* \"#utility.yul\":2944:2950   */\n      dup4\n        /* \"#utility.yul\":2941:2942   */\n      dup2\n        /* \"#utility.yul\":2938:2951   */\n      lt\n        /* \"#utility.yul\":2930:3043   */\n      iszero\n      tag_108\n      jumpi\n        /* \"#utility.yul\":3029:3030   */\n      dup1\n        /* \"#utility.yul\":3024:3027   */\n      dup3\n        /* \"#utility.yul\":3020:3031   */\n      add\n        /* \"#utility.yul\":3014:3032   */\n      mload\n        /* \"#utility.yul\":3010:3011   */\n      dup2\n        /* \"#utility.yul\":3005:3008   */\n      dup5\n        /* \"#utility.yul\":3001:3012   */\n      add\n        /* \"#utility.yul\":2994:3033   */\n      mstore\n        /* \"#utility.yul\":2966:2968   */\n      0x20\n        /* \"#utility.yul\":2963:2964   */\n      dup2\n        /* \"#utility.yul\":2959:2969   */\n      add\n        /* \"#utility.yul\":2954:2969   */\n      swap1\n      pop\n        /* \"#utility.yul\":2930:3043   */\n      jump(tag_106)\n    tag_108:\n        /* \"#utility.yul\":3061:3067   */\n      dup4\n        /* \"#utility.yul\":3058:3059   */\n      dup2\n        /* \"#utility.yul\":3055:3068   */\n      gt\n        /* \"#utility.yul\":3052:3153   */\n      iszero\n      tag_109\n      jumpi\n        /* \"#utility.yul\":3141:3142   */\n      0x00\n        /* \"#utility.yul\":3132:3138   */\n      dup5\n        /* \"#utility.yul\":3127:3130   */\n      dup5\n        /* \"#utility.yul\":3123:3139   */\n      add\n        /* \"#utility.yul\":3116:3143   */\n      mstore\n        /* \"#utility.yul\":3052:3153   */\n    tag_109:\n        /* \"#utility.yul\":2901:3159   */\n      pop\n        /* \"#utility.yul\":2852:3159   */\n      pop\n      pop\n      pop\n      jump\t// out\n        /* \"#utility.yul\":3165:3485   */\n    tag_34:\n        /* \"#utility.yul\":3209:3215   */\n      0x00\n        /* \"#utility.yul\":3246:3247   */\n      0x02\n        /* \"#utility.yul\":3240:3244   */\n      dup3\n        /* \"#utility.yul\":3236:3248   */\n      div\n        /* \"#utility.yul\":3226:3248   */\n      swap1\n      pop\n        /* \"#utility.yul\":3293:3294   */\n      0x01\n        /* \"#utility.yul\":3287:3291   */\n      dup3\n        /* \"#utility.yul\":3283:3295   */\n      and\n        /* \"#utility.yul\":3314:3332   */\n      dup1\n        /* \"#utility.yul\":3304:3385   */\n      tag_111\n      jumpi\n        /* \"#utility.yul\":3370:3374   */\n      0x7f\n        /* \"#utility.yul\":3362:3368   */\n      dup3\n        /* \"#utility.yul\":3358:3375   */\n      and\n        /* \"#utility.yul\":3348:3375   */\n      swap2\n      pop\n        /* \"#utility.yul\":3304:3385   */\n    tag_111:\n        /* \"#utility.yul\":3432:3434   */\n      0x20\n        /* \"#utility.yul\":3424:3430   */\n      dup3\n        /* \"#utility.yul\":3421:3435   */\n      lt\n        /* \"#utility.yul\":3401:3419   */\n      dup2\n        /* \"#utility.yul\":3398:3436   */\n      eq\n        /* \"#utility.yul\":3395:3479   */\n      iszero\n      tag_112\n      jumpi\n        /* \"#utility.yul\":3451:3469   */\n      tag_113\n      tag_114\n      jump\t// in\n    tag_113:\n        /* \"#utility.yul\":3395:3479   */\n    tag_112:\n        /* \"#utility.yul\":3216:3485   */\n      pop\n        /* \"#utility.yul\":3165:3485   */\n      swap2\n      swap1\n      pop\n      jump\t// out\n        /* \"#utility.yul\":3491:3724   */\n    tag_19:\n        /* \"#utility.yul\":3530:3533   */\n      0x00\n        /* \"#utility.yul\":3553:3577   */\n      tag_116\n        /* \"#utility.yul\":3571:3576   */\n      dup3\n        /* \"#utility.yul\":3553:3577   */\n      tag_93\n      jump\t// in\n    tag_116:\n        /* \"#utility.yul\":3544:3577   */\n      swap2\n      pop\n        /* \"#utility.yul\":3599:3665   */\n      0xffffffffffffffffffffffffffffffffffffffffffffffffffffffffffffffff\n        /* \"#utility.yul\":3592:3597   */\n      dup3\n        /* \"#utility.yul\":3589:3666   */\n      eq\n        /* \"#utility.yul\":3586:3689   */\n      iszero\n      tag_117\n      jumpi\n        /* \"#utility.yul\":3669:3687   */\n      tag_118\n      tag_119\n      jump\t// in\n    tag_118:\n        /* \"#utility.yul\":3586:3689   */\n    tag_117:\n        /* \"#utility.yul\":3716:3717   */\n      0x01\n        /* \"#utility.yul\":3709:3714   */\n      dup3\n        /* \"#utility.yul\":3705:3718   */\n      add\n        /* \"#utility.yul\":3698:3718   */\n      swap1\n      pop\n        /* \"#utility.yul\":3491:3724   */\n      swap2\n      swap1\n      pop\n      jump\t// out\n        /* \"#utility.yul\":3730:3910   */\n    tag_119:\n        /* \"#utility.yul\":3778:3855   */\n      0x4e487b7100000000000000000000000000000000000000000000000000000000\n        /* \"#utility.yul\":3775:3776   */\n      0x00\n        /* \"#utility.yul\":3768:3856   */\n      mstore\n        /* \"#utility.yul\":3875:3879   */\n      0x11\n        /* \"#utility.yul\":3872:3873   */\n      0x04\n        /* \"#utility.yul\":3865:3880   */\n      mstore\n        /* \"#utility.yul\":3899:3903   */\n      0x24\n        /* \"#utility.yul\":3896:3897   */\n      0x00\n        /* \"#utility.yul\":3889:3904   */\n      revert\n        /* \"#utility.yul\":3916:4096   */\n    tag_114:\n        /* \"#utility.yul\":3964:4041   */\n      0x4e487b7100000000000000000000000000000000000000000000000000000000\n        /* \"#utility.yul\":3961:3962   */\n      0x00\n        /* \"#utility.yul\":3954:4042   */\n      mstore\n        /* \"#utility.yul\":4061:4065   */\n      0x22\n        /* \"#utility.yul\":4058:4059   */\n      0x04\n        /* \"#utility.yul\":4051:4066   */\n      mstore\n        /* \"#utility.yul\":4085:4089   */\n      0x24\n        /* \"#utility.yul\":4082:4083   */\n      0x00\n        /* \"#utility.yul\":4075:4090   */\n      revert\n        /* \"#utility.yul\":4102:4282   */\n    tag_25:\n        /* \"#utility.yul\":4150:4227   */\n      0x4e487b7100000000000000000000000000000000000000000000000000000000\n        /* \"#utility.yul\":4147:4148   */\n      0x00\n        /* \"#utility.yul\":4140:4228   */\n      mstore\n        /* \"#utility.yul\":4247:4251   */\n      0x32\n        /* \"#utility.yul\":4244:4245   */\n      0x04\n        /* \"#utility.yul\":4237:4252   */\n      mstore\n        /* \"#utility.yul\":4271:4275   */\n      0x24\n        /* \"#utility.yul\":4268:4269   */\n      0x00\n        /* \"#utility.yul\":4261:4276   */\n      revert\n        /* \"#utility.yul\":4411:4528   */\n    tag_73:\n        /* \"#utility.yul\":4520:4521   */\n      0x00\n        /* \"#utility.yul\":4517:4518   */\n      dup1\n        /* \"#utility.yul\":4510:4522   */\n      revert\n        /* \"#utility.yul\":4534:4636   */\n    tag_84:\n        /* \"#utility.yul\":4575:4581   */\n      0x00\n        /* \"#utility.yul\":4626:4628   */\n      0x1f\n        /* \"#utility.yul\":4622:4629   */\n      not\n        /* \"#utility.yul\":4617:4619   */\n      0x1f\n        /* \"#utility.yul\":4610:4615   */\n      dup4\n        /* \"#utility.yul\":4606:4620   */\n      add\n        /* \"#utility.yul\":4602:4630   */\n      and\n        /* \"#utility.yul\":4592:4630   */\n      swap1\n      pop\n        /* \"#utility.yul\":4534:4636   */\n      swap2\n      swap1\n      pop\n      jump\t// out\n        /* \"#utility.yul\":4642:4806   */\n    tag_89:\n        /* \"#utility.yul\":4782:4798   */\n      0x5461736b206e6f7420466f756e64000000000000000000000000000000000000\n        /* \"#utility.yul\":4778:4779   */\n      0x00\n        /* \"#utility.yul\":4770:4776   */\n      dup3\n        /* \"#utility.yul\":4766:4780   */\n      add\n        /* \"#utility.yul\":4759:4799   */\n      mstore\n        /* \"#utility.yul\":4642:4806   */\n      pop\n      jump\t// out\n        /* \"#utility.yul\":4812:4934   */\n    tag_69:\n        /* \"#utility.yul\":4885:4909   */\n      tag_129\n        /* \"#utility.yul\":4903:4908   */\n      dup2\n        /* \"#utility.yul\":4885:4909   */\n      tag_93\n      jump\t// in\n    tag_129:\n        /* \"#utility.yul\":4878:4883   */\n      dup2\n        /* \"#utility.yul\":4875:4910   */\n      eq\n        /* \"#utility.yul\":4865:4928   */\n      tag_130\n      jumpi\n        /* \"#utility.yul\":4924:4925   */\n      0x00\n        /* \"#utility.yul\":4921:4922   */\n      dup1\n        /* \"#utility.yul\":4914:4926   */\n      revert\n        /* \"#utility.yul\":4865:4928   */\n    tag_130:\n        /* \"#utility.yul\":4812:4934   */\n      pop\n      jump\t// out\n\n    auxdata: 0xa2646970667358221220db26683585c3df4b0fccf05474c9563564dd8208693c74e79980122aed46054b64736f6c63430008070033\n}\n",
				"bytecode": {
					"linkReferences": {},
					"object": "608060405234801561001057600080fd5b50610771806100206000396000f3fe608060405234801561001057600080fd5b50600436106100365760003560e01c8063a74764931461003b578063ab755faf14610045575b600080fd5b610043610077565b005b61005f600480360381019061005a9190610487565b610188565b60405161006e9392919061053f565b60405180910390f35b6001604051806060016040528060005481526020016040518060400160405280600781526020017f4c696d706961720000000000000000000000000000000000000000000000000081525081526020016040518060400160405280600e81526020017f436f6e206c61206573636f62612e000000000000000000000000000000000000815250815250908060018154018082558091505060019003906000526020600020906003020160009091909190915060008201518160000155602082015181600101908051906020019061014f9291906103cf565b50604082015181600201908051906020019061016c9291906103cf565b5050506000808154809291906101819061060f565b9190505550565b6000606080600061019885610330565b9050600181815481106101ae576101ad6106b6565b5b906000526020600020906003020160000154600182815481106101d4576101d36106b6565b5b9060005260206000209060030201600101600183815481106101f9576101f86106b6565b5b9060005260206000209060030201600201818054610216906105dd565b80601f0160208091040260200160405190810160405280929190818152602001828054610242906105dd565b801561028f5780601f106102645761010080835404028352916020019161028f565b820191906000526020600020905b81548152906001019060200180831161027257829003601f168201915b505050505091508080546102a2906105dd565b80601f01602080910402602001604051908101604052809291908181526020018280546102ce906105dd565b801561031b5780601f106102f05761010080835404028352916020019161031b565b820191906000526020600020905b8154815290600101906020018083116102fe57829003601f168201915b50505050509050935093509350509193909250565b600080600090505b60018054905081101561038e57826001828154811061035a576103596106b6565b5b906000526020600020906003020160000154141561037b57809150506103ca565b80806103869061060f565b915050610338565b506040517f08c379a00000000000000000000000000000000000000000000000000000000081526004016103c19061051f565b60405180910390fd5b919050565b8280546103db906105dd565b90600052602060002090601f0160209004810192826103fd5760008555610444565b82601f1061041657805160ff1916838001178555610444565b82800160010185558215610444579182015b82811115610443578251825591602001919060010190610428565b5b5090506104519190610455565b5090565b5b8082111561046e576000816000905550600101610456565b5090565b60008135905061048181610724565b92915050565b60006020828403121561049d5761049c6106e5565b5b60006104ab84828501610472565b91505092915050565b60006104bf82610584565b6104c9818561058f565b93506104d98185602086016105aa565b6104e2816106ea565b840191505092915050565b60006104fa600e8361058f565b9150610505826106fb565b602082019050919050565b610519816105a0565b82525050565b60006020820190508181036000830152610538816104ed565b9050919050565b60006060820190506105546000830186610510565b818103602083015261056681856104b4565b9050818103604083015261057a81846104b4565b9050949350505050565b600081519050919050565b600082825260208201905092915050565b6000819050919050565b60005b838110156105c85780820151818401526020810190506105ad565b838111156105d7576000848401525b50505050565b600060028204905060018216806105f557607f821691505b6020821081141561060957610608610687565b5b50919050565b600061061a826105a0565b91507fffffffffffffffffffffffffffffffffffffffffffffffffffffffffffffffff82141561064d5761064c610658565b5b600182019050919050565b7f4e487b7100000000000000000000000000000000000000000000000000000000600052601160045260246000fd5b7f4e487b7100000000000000000000000000000000000000000000000000000000600052602260045260246000fd5b7f4e487b7100000000000000000000000000000000000000000000000000000000600052603260045260246000fd5b600080fd5b6000601f19601f8301169050919050565b7f5461736b206e6f7420466f756e64000000000000000000000000000000000000600082015250565b61072d816105a0565b811461073857600080fd5b5056fea2646970667358221220db26683585c3df4b0fccf05474c9563564dd8208693c74e79980122aed46054b64736f6c63430008070033",
					"opcodes": "PUSH1 0x80 PUSH1 0x40 MSTORE CALLVALUE DUP1 ISZERO PUSH2 0x10 JUMPI PUSH1 0x0 DUP1 REVERT JUMPDEST POP PUSH2 0x771 DUP1 PUSH2 0x20 PUSH1 0x0 CODECOPY PUSH1 0x0 RETURN INVALID PUSH1 0x80 PUSH1 0x40 MSTORE CALLVALUE DUP1 ISZERO PUSH2 0x10 JUMPI PUSH1 0x0 DUP1 REVERT JUMPDEST POP PUSH1 0x4 CALLDATASIZE LT PUSH2 0x36 JUMPI PUSH1 0x0 CALLDATALOAD PUSH1 0xE0 SHR DUP1 PUSH4 0xA7476493 EQ PUSH2 0x3B JUMPI DUP1 PUSH4 0xAB755FAF EQ PUSH2 0x45 JUMPI JUMPDEST PUSH1 0x0 DUP1 REVERT JUMPDEST PUSH2 0x43 PUSH2 0x77 JUMP JUMPDEST STOP JUMPDEST PUSH2 0x5F PUSH1 0x4 DUP1 CALLDATASIZE SUB DUP2 ADD SWAP1 PUSH2 0x5A SWAP2 SWAP1 PUSH2 0x487 JUMP JUMPDEST PUSH2 0x188 JUMP JUMPDEST PUSH1 0x40 MLOAD PUSH2 0x6E SWAP4 SWAP3 SWAP2 SWAP1 PUSH2 0x53F JUMP JUMPDEST PUSH1 0x40 MLOAD DUP1 SWAP2 SUB SWAP1 RETURN JUMPDEST PUSH1 0x1 PUSH1 0x40 MLOAD DUP1 PUSH1 0x60 ADD PUSH1 0x40 MSTORE DUP1 PUSH1 0x0 SLOAD DUP2 MSTORE PUSH1 0x20 ADD PUSH1 0x40 MLOAD DUP1 PUSH1 0x40 ADD PUSH1 0x40 MSTORE DUP1 PUSH1 0x7 DUP2 MSTORE PUSH1 0x20 ADD PUSH32 0x4C696D7069617200000000000000000000000000000000000000000000000000 DUP2 MSTORE POP DUP2 MSTORE PUSH1 0x20 ADD PUSH1 0x40 MLOAD DUP1 PUSH1 0x40 ADD PUSH1 0x40 MSTORE DUP1 PUSH1 0xE DUP2 MSTORE PUSH1 0x20 ADD PUSH32 0x436F6E206C61206573636F62612E000000000000000000000000000000000000 DUP2 MSTORE POP DUP2 MSTORE POP SWAP1 DUP1 PUSH1 0x1 DUP2 SLOAD ADD DUP1 DUP3 SSTORE DUP1 SWAP2 POP POP PUSH1 0x1 SWAP1 SUB SWAP1 PUSH1 0x0 MSTORE PUSH1 0x20 PUSH1 0x0 KECCAK256 SWAP1 PUSH1 0x3 MUL ADD PUSH1 0x0 SWAP1 SWAP2 SWAP1 SWAP2 SWAP1 SWAP2 POP PUSH1 0x0 DUP3 ADD MLOAD DUP2 PUSH1 0x0 ADD SSTORE PUSH1 0x20 DUP3 ADD MLOAD DUP2 PUSH1 0x1 ADD SWAP1 DUP1 MLOAD SWAP1 PUSH1 0x20 ADD SWAP1 PUSH2 0x14F SWAP3 SWAP2 SWAP1 PUSH2 0x3CF JUMP JUMPDEST POP PUSH1 0x40 DUP3 ADD MLOAD DUP2 PUSH1 0x2 ADD SWAP1 DUP1 MLOAD SWAP1 PUSH1 0x20 ADD SWAP1 PUSH2 0x16C SWAP3 SWAP2 SWAP1 PUSH2 0x3CF JUMP JUMPDEST POP POP POP PUSH1 0x0 DUP1 DUP2 SLOAD DUP1 SWAP3 SWAP2 SWAP1 PUSH2 0x181 SWAP1 PUSH2 0x60F JUMP JUMPDEST SWAP2 SWAP1 POP SSTORE POP JUMP JUMPDEST PUSH1 0x0 PUSH1 0x60 DUP1 PUSH1 0x0 PUSH2 0x198 DUP6 PUSH2 0x330 JUMP JUMPDEST SWAP1 POP PUSH1 0x1 DUP2 DUP2 SLOAD DUP2 LT PUSH2 0x1AE JUMPI PUSH2 0x1AD PUSH2 0x6B6 JUMP JUMPDEST JUMPDEST SWAP1 PUSH1 0x0 MSTORE PUSH1 0x20 PUSH1 0x0 KECCAK256 SWAP1 PUSH1 0x3 MUL ADD PUSH1 0x0 ADD SLOAD PUSH1 0x1 DUP3 DUP2 SLOAD DUP2 LT PUSH2 0x1D4 JUMPI PUSH2 0x1D3 PUSH2 0x6B6 JUMP JUMPDEST JUMPDEST SWAP1 PUSH1 0x0 MSTORE PUSH1 0x20 PUSH1 0x0 KECCAK256 SWAP1 PUSH1 0x3 MUL ADD PUSH1 0x1 ADD PUSH1 0x1 DUP4 DUP2 SLOAD DUP2 LT PUSH2 0x1F9 JUMPI PUSH2 0x1F8 PUSH2 0x6B6 JUMP JUMPDEST JUMPDEST SWAP1 PUSH1 0x0 MSTORE PUSH1 0x20 PUSH1 0x0 KECCAK256 SWAP1 PUSH1 0x3 MUL ADD PUSH1 0x2 ADD DUP2 DUP1 SLOAD PUSH2 0x216 SWAP1 PUSH2 0x5DD JUMP JUMPDEST DUP1 PUSH1 0x1F ADD PUSH1 0x20 DUP1 SWAP2 DIV MUL PUSH1 0x20 ADD PUSH1 0x40 MLOAD SWAP1 DUP2 ADD PUSH1 0x40 MSTORE DUP1 SWAP3 SWAP2 SWAP1 DUP2 DUP2 MSTORE PUSH1 0x20 ADD DUP3 DUP1 SLOAD PUSH2 0x242 SWAP1 PUSH2 0x5DD JUMP JUMPDEST DUP1 ISZERO PUSH2 0x28F JUMPI DUP1 PUSH1 0x1F LT PUSH2 0x264 JUMPI PUSH2 0x100 DUP1 DUP4 SLOAD DIV MUL DUP4 MSTORE SWAP2 PUSH1 0x20 ADD SWAP2 PUSH2 0x28F JUMP JUMPDEST DUP3 ADD SWAP2 SWAP1 PUSH1 0x0 MSTORE PUSH1 0x20 PUSH1 0x0 KECCAK256 SWAP1 JUMPDEST DUP2 SLOAD DUP2 MSTORE SWAP1 PUSH1 0x1 ADD SWAP1 PUSH1 0x20 ADD DUP1 DUP4 GT PUSH2 0x272 JUMPI DUP3 SWAP1 SUB PUSH1 0x1F AND DUP3 ADD SWAP2 JUMPDEST POP POP POP POP POP SWAP2 POP DUP1 DUP1 SLOAD PUSH2 0x2A2 SWAP1 PUSH2 0x5DD JUMP JUMPDEST DUP1 PUSH1 0x1F ADD PUSH1 0x20 DUP1 SWAP2 DIV MUL PUSH1 0x20 ADD PUSH1 0x40 MLOAD SWAP1 DUP2 ADD PUSH1 0x40 MSTORE DUP1 SWAP3 SWAP2 SWAP1 DUP2 DUP2 MSTORE PUSH1 0x20 ADD DUP3 DUP1 SLOAD PUSH2 0x2CE SWAP1 PUSH2 0x5DD JUMP JUMPDEST DUP1 ISZERO PUSH2 0x31B JUMPI DUP1 PUSH1 0x1F LT PUSH2 0x2F0 JUMPI PUSH2 0x100 DUP1 DUP4 SLOAD DIV MUL DUP4 MSTORE SWAP2 PUSH1 0x20 ADD SWAP2 PUSH2 0x31B JUMP JUMPDEST DUP3 ADD SWAP2 SWAP1 PUSH1 0x0 MSTORE PUSH1 0x20 PUSH1 0x0 KECCAK256 SWAP1 JUMPDEST DUP2 SLOAD DUP2 MSTORE SWAP1 PUSH1 0x1 ADD SWAP1 PUSH1 0x20 ADD DUP1 DUP4 GT PUSH2 0x2FE JUMPI DUP3 SWAP1 SUB PUSH1 0x1F AND DUP3 ADD SWAP2 JUMPDEST POP POP POP POP POP SWAP1 POP SWAP4 POP SWAP4 POP SWAP4 POP POP SWAP2 SWAP4 SWAP1 SWAP3 POP JUMP JUMPDEST PUSH1 0x0 DUP1 PUSH1 0x0 SWAP1 POP JUMPDEST PUSH1 0x1 DUP1 SLOAD SWAP1 POP DUP2 LT ISZERO PUSH2 0x38E JUMPI DUP3 PUSH1 0x1 DUP3 DUP2 SLOAD DUP2 LT PUSH2 0x35A JUMPI PUSH2 0x359 PUSH2 0x6B6 JUMP JUMPDEST JUMPDEST SWAP1 PUSH1 0x0 MSTORE PUSH1 0x20 PUSH1 0x0 KECCAK256 SWAP1 PUSH1 0x3 MUL ADD PUSH1 0x0 ADD SLOAD EQ ISZERO PUSH2 0x37B JUMPI DUP1 SWAP2 POP POP PUSH2 0x3CA JUMP JUMPDEST DUP1 DUP1 PUSH2 0x386 SWAP1 PUSH2 0x60F JUMP JUMPDEST SWAP2 POP POP PUSH2 0x338 JUMP JUMPDEST POP PUSH1 0x40 MLOAD PUSH32 0x8C379A000000000000000000000000000000000000000000000000000000000 DUP2 MSTORE PUSH1 0x4 ADD PUSH2 0x3C1 SWAP1 PUSH2 0x51F JUMP JUMPDEST PUSH1 0x40 MLOAD DUP1 SWAP2 SUB SWAP1 REVERT JUMPDEST SWAP2 SWAP1 POP JUMP JUMPDEST DUP3 DUP1 SLOAD PUSH2 0x3DB SWAP1 PUSH2 0x5DD JUMP JUMPDEST SWAP1 PUSH1 0x0 MSTORE PUSH1 0x20 PUSH1 0x0 KECCAK256 SWAP1 PUSH1 0x1F ADD PUSH1 0x20 SWAP1 DIV DUP2 ADD SWAP3 DUP3 PUSH2 0x3FD JUMPI PUSH1 0x0 DUP6 SSTORE PUSH2 0x444 JUMP JUMPDEST DUP3 PUSH1 0x1F LT PUSH2 0x416 JUMPI DUP1 MLOAD PUSH1 0xFF NOT AND DUP4 DUP1 ADD OR DUP6 SSTORE PUSH2 0x444 JUMP JUMPDEST DUP3 DUP1 ADD PUSH1 0x1 ADD DUP6 SSTORE DUP3 ISZERO PUSH2 0x444 JUMPI SWAP2 DUP3 ADD JUMPDEST DUP3 DUP2 GT ISZERO PUSH2 0x443 JUMPI DUP3 MLOAD DUP3 SSTORE SWAP2 PUSH1 0x20 ADD SWAP2 SWAP1 PUSH1 0x1 ADD SWAP1 PUSH2 0x428 JUMP JUMPDEST JUMPDEST POP SWAP1 POP PUSH2 0x451 SWAP2 SWAP1 PUSH2 0x455 JUMP JUMPDEST POP SWAP1 JUMP JUMPDEST JUMPDEST DUP1 DUP3 GT ISZERO PUSH2 0x46E JUMPI PUSH1 0x0 DUP2 PUSH1 0x0 SWAP1 SSTORE POP PUSH1 0x1 ADD PUSH2 0x456 JUMP JUMPDEST POP SWAP1 JUMP JUMPDEST PUSH1 0x0 DUP2 CALLDATALOAD SWAP1 POP PUSH2 0x481 DUP2 PUSH2 0x724 JUMP JUMPDEST SWAP3 SWAP2 POP POP JUMP JUMPDEST PUSH1 0x0 PUSH1 0x20 DUP3 DUP5 SUB SLT ISZERO PUSH2 0x49D JUMPI PUSH2 0x49C PUSH2 0x6E5 JUMP JUMPDEST JUMPDEST PUSH1 0x0 PUSH2 0x4AB DUP5 DUP3 DUP6 ADD PUSH2 0x472 JUMP JUMPDEST SWAP2 POP POP SWAP3 SWAP2 POP POP JUMP JUMPDEST PUSH1 0x0 PUSH2 0x4BF DUP3 PUSH2 0x584 JUMP JUMPDEST PUSH2 0x4C9 DUP2 DUP6 PUSH2 0x58F JUMP JUMPDEST SWAP4 POP PUSH2 0x4D9 DUP2 DUP6 PUSH1 0x20 DUP7 ADD PUSH2 0x5AA JUMP JUMPDEST PUSH2 0x4E2 DUP2 PUSH2 0x6EA JUMP JUMPDEST DUP5 ADD SWAP2 POP POP SWAP3 SWAP2 POP POP JUMP JUMPDEST PUSH1 0x0 PUSH2 0x4FA PUSH1 0xE DUP4 PUSH2 0x58F JUMP JUMPDEST SWAP2 POP PUSH2 0x505 DUP3 PUSH2 0x6FB JUMP JUMPDEST PUSH1 0x20 DUP3 ADD SWAP1 POP SWAP2 SWAP1 POP JUMP JUMPDEST PUSH2 0x519 DUP2 PUSH2 0x5A0 JUMP JUMPDEST DUP3 MSTORE POP POP JUMP JUMPDEST PUSH1 0x0 PUSH1 0x20 DUP3 ADD SWAP1 POP DUP2 DUP2 SUB PUSH1 0x0 DUP4 ADD MSTORE PUSH2 0x538 DUP2 PUSH2 0x4ED JUMP JUMPDEST SWAP1 POP SWAP2 SWAP1 POP JUMP JUMPDEST PUSH1 0x0 PUSH1 0x60 DUP3 ADD SWAP1 POP PUSH2 0x554 PUSH1 0x0 DUP4 ADD DUP7 PUSH2 0x510 JUMP JUMPDEST DUP2 DUP2 SUB PUSH1 0x20 DUP4 ADD MSTORE PUSH2 0x566 DUP2 DUP6 PUSH2 0x4B4 JUMP JUMPDEST SWAP1 POP DUP2 DUP2 SUB PUSH1 0x40 DUP4 ADD MSTORE PUSH2 0x57A DUP2 DUP5 PUSH2 0x4B4 JUMP JUMPDEST SWAP1 POP SWAP5 SWAP4 POP POP POP POP JUMP JUMPDEST PUSH1 0x0 DUP2 MLOAD SWAP1 POP SWAP2 SWAP1 POP JUMP JUMPDEST PUSH1 0x0 DUP3 DUP3 MSTORE PUSH1 0x20 DUP3 ADD SWAP1 POP SWAP3 SWAP2 POP POP JUMP JUMPDEST PUSH1 0x0 DUP2 SWAP1 POP SWAP2 SWAP1 POP JUMP JUMPDEST PUSH1 0x0 JUMPDEST DUP4 DUP2 LT ISZERO PUSH2 0x5C8 JUMPI DUP1 DUP3 ADD MLOAD DUP2 DUP5 ADD MSTORE PUSH1 0x20 DUP2 ADD SWAP1 POP PUSH2 0x5AD JUMP JUMPDEST DUP4 DUP2 GT ISZERO PUSH2 0x5D7 JUMPI PUSH1 0x0 DUP5 DUP5 ADD MSTORE JUMPDEST POP POP POP POP JUMP JUMPDEST PUSH1 0x0 PUSH1 0x2 DUP3 DIV SWAP1 POP PUSH1 0x1 DUP3 AND DUP1 PUSH2 0x5F5 JUMPI PUSH1 0x7F DUP3 AND SWAP2 POP JUMPDEST PUSH1 0x20 DUP3 LT DUP2 EQ ISZERO PUSH2 0x609 JUMPI PUSH2 0x608 PUSH2 0x687 JUMP JUMPDEST JUMPDEST POP SWAP2 SWAP1 POP JUMP JUMPDEST PUSH1 0x0 PUSH2 0x61A DUP3 PUSH2 0x5A0 JUMP JUMPDEST SWAP2 POP PUSH32 0xFFFFFFFFFFFFFFFFFFFFFFFFFFFFFFFFFFFFFFFFFFFFFFFFFFFFFFFFFFFFFFFF DUP3 EQ ISZERO PUSH2 0x64D JUMPI PUSH2 0x64C PUSH2 0x658 JUMP JUMPDEST JUMPDEST PUSH1 0x1 DUP3 ADD SWAP1 POP SWAP2 SWAP1 POP JUMP JUMPDEST PUSH32 0x4E487B7100000000000000000000000000000000000000000000000000000000 PUSH1 0x0 MSTORE PUSH1 0x11 PUSH1 0x4 MSTORE PUSH1 0x24 PUSH1 0x0 REVERT JUMPDEST PUSH32 0x4E487B7100000000000000000000000000000000000000000000000000000000 PUSH1 0x0 MSTORE PUSH1 0x22 PUSH1 0x4 MSTORE PUSH1 0x24 PUSH1 0x0 REVERT JUMPDEST PUSH32 0x4E487B7100000000000000000000000000000000000000000000000000000000 PUSH1 0x0 MSTORE PUSH1 0x32 PUSH1 0x4 MSTORE PUSH1 0x24 PUSH1 0x0 REVERT JUMPDEST PUSH1 0x0 DUP1 REVERT JUMPDEST PUSH1 0x0 PUSH1 0x1F NOT PUSH1 0x1F DUP4 ADD AND SWAP1 POP SWAP2 SWAP1 POP JUMP JUMPDEST PUSH32 0x5461736B206E6F7420466F756E64000000000000000000000000000000000000 PUSH1 0x0 DUP3 ADD MSTORE POP JUMP JUMPDEST PUSH2 0x72D DUP2 PUSH2 0x5A0 JUMP JUMPDEST DUP2 EQ PUSH2 0x738 JUMPI PUSH1 0x0 DUP1 REVERT JUMPDEST POP JUMP INVALID LOG2 PUSH5 0x6970667358 0x22 SLT KECCAK256 0xDB 0x26 PUSH9 0x3585C3DF4B0FCCF054 PUSH21 0xC9563564DD8208693C74E79980122AED46054B6473 PUSH16 0x6C634300080700330000000000000000 "
				},
				"gasEstimates": {
					"creation": {
						"codeDepositCost": "381000",
						"executionCost": "418",
						"totalCost": "381418"
					},
					"external": {
						"createTask()": "infinite",
						"readTask(uint256)": "infinite"
					},
					"internal": {
						"findIndex(uint256)": "infinite"
					}
				},
				"methodIdentifiers": {
					"createTask()": "a7476493",
					"readTask(uint256)": "ab755faf"
				}
			},
			"storageLayout": {
				"storage": [
					{
						"astId": 3,
						"contract": "contracts/TaskContract.sol:TaskContract",
						"label": "nextId",
						"offset": 0,
						"slot": "0",
						"type": "t_uint256"
					},
					{
						"astId": 14,
						"contract": "contracts/TaskContract.sol:TaskContract",
						"label": "tasks",
						"offset": 0,
						"slot": "1",
						"type": "t_array(t_struct(Task)10_storage)dyn_storage"
					}
				],
				"types": {
					"t_array(t_struct(Task)10_storage)dyn_storage": {
						"base": "t_struct(Task)10_storage",
						"encoding": "dynamic_array",
						"label": "struct TaskContract.Task[]",
						"numberOfBytes": "32"
					},
					"t_string_storage": {
						"encoding": "bytes",
						"label": "string",
						"numberOfBytes": "32"
					},
					"t_struct(Task)10_storage": {
						"encoding": "inplace",
						"label": "struct TaskContract.Task",
						"members": [
							{
								"astId": 5,
								"contract": "contracts/TaskContract.sol:TaskContract",
								"label": "id",
								"offset": 0,
								"slot": "0",
								"type": "t_uint256"
							},
							{
								"astId": 7,
								"contract": "contracts/TaskContract.sol:TaskContract",
								"label": "name",
								"offset": 0,
								"slot": "1",
								"type": "t_string_storage"
							},
							{
								"astId": 9,
								"contract": "contracts/TaskContract.sol:TaskContract",
								"label": "description",
								"offset": 0,
								"slot": "2",
								"type": "t_string_storage"
							}
						],
						"numberOfBytes": "96"
					},
					"t_uint256": {
						"encoding": "inplace",
						"label": "uint256",
						"numberOfBytes": "32"
					}
				}
			},
			"userdoc": {
				"kind": "user",
				"methods": {},
				"version": 1
			}
		}
	}
}