{
	"contracts/TaskContract.sol": {
		"TaskContract": {
			"abi": [
				{
					"inputs": [],
					"name": "createTask",
					"outputs": [],
					"stateMutability": "nonpayable",
					"type": "function"
				},
				{
					"inputs": [
						{
							"internalType": "uint256",
							"name": "_id",
							"type": "uint256"
						}
					],
					"name": "readTask",
					"outputs": [],
					"stateMutability": "nonpayable",
					"type": "function"
				}
			],
			"devdoc": {
				"kind": "dev",
				"methods": {},
				"version": 1
			},
			"evm": {
				"assembly": "    /* \"contracts/TaskContract.sol\":64:700  contract TaskContract {\r... */\n  mstore(0x40, 0x80)\n  callvalue\n  dup1\n  iszero\n  tag_1\n  jumpi\n  0x00\n  dup1\n  revert\ntag_1:\n  pop\n  dataSize(sub_0)\n  dup1\n  dataOffset(sub_0)\n  0x00\n  codecopy\n  0x00\n  return\nstop\n\nsub_0: assembly {\n        /* \"contracts/TaskContract.sol\":64:700  contract TaskContract {\r... */\n      mstore(0x40, 0x80)\n      callvalue\n      dup1\n      iszero\n      tag_1\n      jumpi\n      0x00\n      dup1\n      revert\n    tag_1:\n      pop\n      jumpi(tag_2, lt(calldatasize, 0x04))\n      shr(0xe0, calldataload(0x00))\n      dup1\n      0xa7476493\n      eq\n      tag_3\n      jumpi\n      dup1\n      0xab755faf\n      eq\n      tag_4\n      jumpi\n    tag_2:\n      0x00\n      dup1\n      revert\n        /* \"contracts/TaskContract.sol\":239:356  function createTask() public{\r... */\n    tag_3:\n      tag_5\n      tag_6\n      jump\t// in\n    tag_5:\n      stop\n        /* \"contracts/TaskContract.sol\":364:449  function readTask(uint _id) public {\r... */\n    tag_4:\n      tag_7\n      0x04\n      dup1\n      calldatasize\n      sub\n      dup2\n      add\n      swap1\n      tag_8\n      swap2\n      swap1\n      tag_9\n      jump\t// in\n    tag_8:\n      tag_10\n      jump\t// in\n    tag_7:\n      stop\n        /* \"contracts/TaskContract.sol\":239:356  function createTask() public{\r... */\n    tag_6:\n        /* \"contracts/TaskContract.sol\":278:283  tasks */\n      0x01\n        /* \"contracts/TaskContract.sol\":289:328  Task(nextId,'Limpiar','Con la escoba.') */\n      mload(0x40)\n      dup1\n      0x60\n      add\n      0x40\n      mstore\n      dup1\n        /* \"contracts/TaskContract.sol\":294:300  nextId */\n      sload(0x00)\n        /* \"contracts/TaskContract.sol\":289:328  Task(nextId,'Limpiar','Con la escoba.') */\n      dup2\n      mstore\n      0x20\n      add\n      mload(0x40)\n      dup1\n      0x40\n      add\n      0x40\n      mstore\n      dup1\n      0x07\n      dup2\n      mstore\n      0x20\n      add\n      0x4c696d7069617200000000000000000000000000000000000000000000000000\n      dup2\n      mstore\n      pop\n      dup2\n      mstore\n      0x20\n      add\n      mload(0x40)\n      dup1\n      0x40\n      add\n      0x40\n      mstore\n      dup1\n      0x0e\n      dup2\n      mstore\n      0x20\n      add\n      0x436f6e206c61206573636f62612e000000000000000000000000000000000000\n      dup2\n      mstore\n      pop\n      dup2\n      mstore\n      pop\n        /* \"contracts/TaskContract.sol\":278:329  tasks.push(Task(nextId,'Limpiar','Con la escoba.')) */\n      swap1\n      dup1\n      0x01\n      dup2\n      sload\n      add\n      dup1\n      dup3\n      sstore\n      dup1\n      swap2\n      pop\n      pop\n      0x01\n      swap1\n      sub\n      swap1\n      0x00\n      mstore\n      keccak256(0x00, 0x20)\n      swap1\n      0x03\n      mul\n      add\n      0x00\n      swap1\n      swap2\n      swap1\n      swap2\n      swap1\n      swap2\n      pop\n      0x00\n      dup3\n      add\n      mload\n      dup2\n      0x00\n      add\n      sstore\n      0x20\n      dup3\n      add\n      mload\n      dup2\n      0x01\n      add\n      swap1\n      dup1\n      mload\n      swap1\n      0x20\n      add\n      swap1\n      tag_13\n      swap3\n      swap2\n      swap1\n      tag_14\n      jump\t// in\n    tag_13:\n      pop\n      0x40\n      dup3\n      add\n      mload\n      dup2\n      0x02\n      add\n      swap1\n      dup1\n      mload\n      swap1\n      0x20\n      add\n      swap1\n      tag_15\n      swap3\n      swap2\n      swap1\n      tag_14\n      jump\t// in\n    tag_15:\n      pop\n      pop\n      pop\n        /* \"contracts/TaskContract.sol\":340:346  nextId */\n      0x00\n      dup1\n        /* \"contracts/TaskContract.sol\":340:348  nextId++ */\n      dup2\n      sload\n      dup1\n      swap3\n      swap2\n      swap1\n      tag_16\n      swap1\n      tag_17\n      jump\t// in\n    tag_16:\n      swap2\n      swap1\n      pop\n      sstore\n      pop\n        /* \"contracts/TaskContract.sol\":239:356  function createTask() public{\r... */\n      jump\t// out\n        /* \"contracts/TaskContract.sol\":364:449  function readTask(uint _id) public {\r... */\n    tag_10:\n        /* \"contracts/TaskContract.sol\":410:420  uint index */\n      0x00\n        /* \"contracts/TaskContract.sol\":423:437  findIndex(_id) */\n      tag_19\n        /* \"contracts/TaskContract.sol\":433:436  _id */\n      dup3\n        /* \"contracts/TaskContract.sol\":423:432  findIndex */\n      tag_20\n        /* \"contracts/TaskContract.sol\":423:437  findIndex(_id) */\n      jump\t// in\n    tag_19:\n        /* \"contracts/TaskContract.sol\":410:437  uint index = findIndex(_id) */\n      swap1\n      pop\n        /* \"contracts/TaskContract.sol\":399:449  {\r... */\n      pop\n        /* \"contracts/TaskContract.sol\":364:449  function readTask(uint _id) public {\r... */\n      pop\n      jump\t// out\n        /* \"contracts/TaskContract.sol\":460:693  function findIndex(uint _id) internal returns (uint){\r... */\n    tag_20:\n        /* \"contracts/TaskContract.sol\":507:511  uint */\n      0x00\n        /* \"contracts/TaskContract.sol\":529:535  uint i */\n      dup1\n        /* \"contracts/TaskContract.sol\":536:537  0 */\n      0x00\n        /* \"contracts/TaskContract.sol\":529:537  uint i=0 */\n      swap1\n      pop\n        /* \"contracts/TaskContract.sol\":525:651  for(uint i=0; i < tasks.length;i++){\r... */\n    tag_22:\n        /* \"contracts/TaskContract.sol\":543:548  tasks */\n      0x01\n        /* \"contracts/TaskContract.sol\":543:555  tasks.length */\n      dup1\n      sload\n      swap1\n      pop\n        /* \"contracts/TaskContract.sol\":539:540  i */\n      dup2\n        /* \"contracts/TaskContract.sol\":539:555  i < tasks.length */\n      lt\n        /* \"contracts/TaskContract.sol\":525:651  for(uint i=0; i < tasks.length;i++){\r... */\n      iszero\n      tag_23\n      jumpi\n        /* \"contracts/TaskContract.sol\":593:596  _id */\n      dup3\n        /* \"contracts/TaskContract.sol\":578:583  tasks */\n      0x01\n        /* \"contracts/TaskContract.sol\":584:585  i */\n      dup3\n        /* \"contracts/TaskContract.sol\":578:586  tasks[i] */\n      dup2\n      sload\n      dup2\n      lt\n      tag_25\n      jumpi\n      tag_26\n      tag_27\n      jump\t// in\n    tag_26:\n    tag_25:\n      swap1\n      0x00\n      mstore\n      keccak256(0x00, 0x20)\n      swap1\n      0x03\n      mul\n      add\n        /* \"contracts/TaskContract.sol\":578:589  tasks[i].id */\n      0x00\n      add\n      sload\n        /* \"contracts/TaskContract.sol\":578:596  tasks[i].id == _id */\n      eq\n        /* \"contracts/TaskContract.sol\":575:640  if(tasks[i].id == _id){\r... */\n      iszero\n      tag_29\n      jumpi\n        /* \"contracts/TaskContract.sol\":623:624  i */\n      dup1\n        /* \"contracts/TaskContract.sol\":616:624  return i */\n      swap2\n      pop\n      pop\n      jump(tag_21)\n        /* \"contracts/TaskContract.sol\":575:640  if(tasks[i].id == _id){\r... */\n    tag_29:\n        /* \"contracts/TaskContract.sol\":556:559  i++ */\n      dup1\n      dup1\n      tag_30\n      swap1\n      tag_17\n      jump\t// in\n    tag_30:\n      swap2\n      pop\n      pop\n        /* \"contracts/TaskContract.sol\":525:651  for(uint i=0; i < tasks.length;i++){\r... */\n      jump(tag_22)\n    tag_23:\n      pop\n        /* \"contracts/TaskContract.sol\":661:685  revert('Task not Found') */\n      mload(0x40)\n      0x08c379a000000000000000000000000000000000000000000000000000000000\n      dup2\n      mstore\n      0x04\n      add\n      tag_31\n      swap1\n      tag_32\n      jump\t// in\n    tag_31:\n      mload(0x40)\n      dup1\n      swap2\n      sub\n      swap1\n      revert\n        /* \"contracts/TaskContract.sol\":460:693  function findIndex(uint _id) internal returns (uint){\r... */\n    tag_21:\n      swap2\n      swap1\n      pop\n      jump\t// out\n    tag_14:\n      dup3\n      dup1\n      sload\n      tag_33\n      swap1\n      tag_34\n      jump\t// in\n    tag_33:\n      swap1\n      0x00\n      mstore\n      keccak256(0x00, 0x20)\n      swap1\n      0x1f\n      add\n      0x20\n      swap1\n      div\n      dup2\n      add\n      swap3\n      dup3\n      tag_36\n      jumpi\n      0x00\n      dup6\n      sstore\n      jump(tag_35)\n    tag_36:\n      dup3\n      0x1f\n      lt\n      tag_37\n      jumpi\n      dup1\n      mload\n      not(0xff)\n      and\n      dup4\n      dup1\n      add\n      or\n      dup6\n      sstore\n      jump(tag_35)\n    tag_37:\n      dup3\n      dup1\n      add\n      0x01\n      add\n      dup6\n      sstore\n      dup3\n      iszero\n      tag_35\n      jumpi\n      swap2\n      dup3\n      add\n    tag_38:\n      dup3\n      dup2\n      gt\n      iszero\n      tag_39\n      jumpi\n      dup3\n      mload\n      dup3\n      sstore\n      swap2\n      0x20\n      add\n      swap2\n      swap1\n      0x01\n      add\n      swap1\n      jump(tag_38)\n    tag_39:\n    tag_35:\n      pop\n      swap1\n      pop\n      tag_40\n      swap2\n      swap1\n      tag_41\n      jump\t// in\n    tag_40:\n      pop\n      swap1\n      jump\t// out\n    tag_41:\n    tag_42:\n      dup1\n      dup3\n      gt\n      iszero\n      tag_43\n      jumpi\n      0x00\n      dup2\n      0x00\n      swap1\n      sstore\n      pop\n      0x01\n      add\n      jump(tag_42)\n    tag_43:\n      pop\n      swap1\n      jump\t// out\n        /* \"#utility.yul\":7:146   */\n    tag_45:\n        /* \"#utility.yul\":53:58   */\n      0x00\n        /* \"#utility.yul\":91:97   */\n      dup2\n        /* \"#utility.yul\":78:98   */\n      calldataload\n        /* \"#utility.yul\":69:98   */\n      swap1\n      pop\n        /* \"#utility.yul\":107:140   */\n      tag_47\n        /* \"#utility.yul\":134:139   */\n      dup2\n        /* \"#utility.yul\":107:140   */\n      tag_48\n      jump\t// in\n    tag_47:\n        /* \"#utility.yul\":7:146   */\n      swap3\n      swap2\n      pop\n      pop\n      jump\t// out\n        /* \"#utility.yul\":152:481   */\n    tag_9:\n        /* \"#utility.yul\":211:217   */\n      0x00\n        /* \"#utility.yul\":260:262   */\n      0x20\n        /* \"#utility.yul\":248:257   */\n      dup3\n        /* \"#utility.yul\":239:246   */\n      dup5\n        /* \"#utility.yul\":235:258   */\n      sub\n        /* \"#utility.yul\":231:263   */\n      slt\n        /* \"#utility.yul\":228:347   */\n      iszero\n      tag_50\n      jumpi\n        /* \"#utility.yul\":266:345   */\n      tag_51\n      tag_52\n      jump\t// in\n    tag_51:\n        /* \"#utility.yul\":228:347   */\n    tag_50:\n        /* \"#utility.yul\":386:387   */\n      0x00\n        /* \"#utility.yul\":411:464   */\n      tag_53\n        /* \"#utility.yul\":456:463   */\n      dup5\n        /* \"#utility.yul\":447:453   */\n      dup3\n        /* \"#utility.yul\":436:445   */\n      dup6\n        /* \"#utility.yul\":432:454   */\n      add\n        /* \"#utility.yul\":411:464   */\n      tag_45\n      jump\t// in\n    tag_53:\n        /* \"#utility.yul\":401:464   */\n      swap2\n      pop\n        /* \"#utility.yul\":357:474   */\n      pop\n        /* \"#utility.yul\":152:481   */\n      swap3\n      swap2\n      pop\n      pop\n      jump\t// out\n        /* \"#utility.yul\":487:853   */\n    tag_54:\n        /* \"#utility.yul\":629:632   */\n      0x00\n        /* \"#utility.yul\":650:717   */\n      tag_56\n        /* \"#utility.yul\":714:716   */\n      0x0e\n        /* \"#utility.yul\":709:712   */\n      dup4\n        /* \"#utility.yul\":650:717   */\n      tag_57\n      jump\t// in\n    tag_56:\n        /* \"#utility.yul\":643:717   */\n      swap2\n      pop\n        /* \"#utility.yul\":726:819   */\n      tag_58\n        /* \"#utility.yul\":815:818   */\n      dup3\n        /* \"#utility.yul\":726:819   */\n      tag_59\n      jump\t// in\n    tag_58:\n        /* \"#utility.yul\":844:846   */\n      0x20\n        /* \"#utility.yul\":839:842   */\n      dup3\n        /* \"#utility.yul\":835:847   */\n      add\n        /* \"#utility.yul\":828:847   */\n      swap1\n      pop\n        /* \"#utility.yul\":487:853   */\n      swap2\n      swap1\n      pop\n      jump\t// out\n        /* \"#utility.yul\":859:1278   */\n    tag_32:\n        /* \"#utility.yul\":1025:1029   */\n      0x00\n        /* \"#utility.yul\":1063:1065   */\n      0x20\n        /* \"#utility.yul\":1052:1061   */\n      dup3\n        /* \"#utility.yul\":1048:1066   */\n      add\n        /* \"#utility.yul\":1040:1066   */\n      swap1\n      pop\n        /* \"#utility.yul\":1112:1121   */\n      dup2\n        /* \"#utility.yul\":1106:1110   */\n      dup2\n        /* \"#utility.yul\":1102:1122   */\n      sub\n        /* \"#utility.yul\":1098:1099   */\n      0x00\n        /* \"#utility.yul\":1087:1096   */\n      dup4\n        /* \"#utility.yul\":1083:1100   */\n      add\n        /* \"#utility.yul\":1076:1123   */\n      mstore\n        /* \"#utility.yul\":1140:1271   */\n      tag_61\n        /* \"#utility.yul\":1266:1270   */\n      dup2\n        /* \"#utility.yul\":1140:1271   */\n      tag_54\n      jump\t// in\n    tag_61:\n        /* \"#utility.yul\":1132:1271   */\n      swap1\n      pop\n        /* \"#utility.yul\":859:1278   */\n      swap2\n      swap1\n      pop\n      jump\t// out\n        /* \"#utility.yul\":1365:1534   */\n    tag_57:\n        /* \"#utility.yul\":1449:1460   */\n      0x00\n        /* \"#utility.yul\":1483:1489   */\n      dup3\n        /* \"#utility.yul\":1478:1481   */\n      dup3\n        /* \"#utility.yul\":1471:1490   */\n      mstore\n        /* \"#utility.yul\":1523:1527   */\n      0x20\n        /* \"#utility.yul\":1518:1521   */\n      dup3\n        /* \"#utility.yul\":1514:1528   */\n      add\n        /* \"#utility.yul\":1499:1528   */\n      swap1\n      pop\n        /* \"#utility.yul\":1365:1534   */\n      swap3\n      swap2\n      pop\n      pop\n      jump\t// out\n        /* \"#utility.yul\":1540:1617   */\n    tag_65:\n        /* \"#utility.yul\":1577:1584   */\n      0x00\n        /* \"#utility.yul\":1606:1611   */\n      dup2\n        /* \"#utility.yul\":1595:1611   */\n      swap1\n      pop\n        /* \"#utility.yul\":1540:1617   */\n      swap2\n      swap1\n      pop\n      jump\t// out\n        /* \"#utility.yul\":1623:1943   */\n    tag_34:\n        /* \"#utility.yul\":1667:1673   */\n      0x00\n        /* \"#utility.yul\":1704:1705   */\n      0x02\n        /* \"#utility.yul\":1698:1702   */\n      dup3\n        /* \"#utility.yul\":1694:1706   */\n      div\n        /* \"#utility.yul\":1684:1706   */\n      swap1\n      pop\n        /* \"#utility.yul\":1751:1752   */\n      0x01\n        /* \"#utility.yul\":1745:1749   */\n      dup3\n        /* \"#utility.yul\":1741:1753   */\n      and\n        /* \"#utility.yul\":1772:1790   */\n      dup1\n        /* \"#utility.yul\":1762:1843   */\n      tag_68\n      jumpi\n        /* \"#utility.yul\":1828:1832   */\n      0x7f\n        /* \"#utility.yul\":1820:1826   */\n      dup3\n        /* \"#utility.yul\":1816:1833   */\n      and\n        /* \"#utility.yul\":1806:1833   */\n      swap2\n      pop\n        /* \"#utility.yul\":1762:1843   */\n    tag_68:\n        /* \"#utility.yul\":1890:1892   */\n      0x20\n        /* \"#utility.yul\":1882:1888   */\n      dup3\n        /* \"#utility.yul\":1879:1893   */\n      lt\n        /* \"#utility.yul\":1859:1877   */\n      dup2\n        /* \"#utility.yul\":1856:1894   */\n      eq\n        /* \"#utility.yul\":1853:1937   */\n      iszero\n      tag_69\n      jumpi\n        /* \"#utility.yul\":1909:1927   */\n      tag_70\n      tag_71\n      jump\t// in\n    tag_70:\n        /* \"#utility.yul\":1853:1937   */\n    tag_69:\n        /* \"#utility.yul\":1674:1943   */\n      pop\n        /* \"#utility.yul\":1623:1943   */\n      swap2\n      swap1\n      pop\n      jump\t// out\n        /* \"#utility.yul\":1949:2182   */\n    tag_17:\n        /* \"#utility.yul\":1988:1991   */\n      0x00\n        /* \"#utility.yul\":2011:2035   */\n      tag_73\n        /* \"#utility.yul\":2029:2034   */\n      dup3\n        /* \"#utility.yul\":2011:2035   */\n      tag_65\n      jump\t// in\n    tag_73:\n        /* \"#utility.yul\":2002:2035   */\n      swap2\n      pop\n        /* \"#utility.yul\":2057:2123   */\n      0xffffffffffffffffffffffffffffffffffffffffffffffffffffffffffffffff\n        /* \"#utility.yul\":2050:2055   */\n      dup3\n        /* \"#utility.yul\":2047:2124   */\n      eq\n        /* \"#utility.yul\":2044:2147   */\n      iszero\n      tag_74\n      jumpi\n        /* \"#utility.yul\":2127:2145   */\n      tag_75\n      tag_76\n      jump\t// in\n    tag_75:\n        /* \"#utility.yul\":2044:2147   */\n    tag_74:\n        /* \"#utility.yul\":2174:2175   */\n      0x01\n        /* \"#utility.yul\":2167:2172   */\n      dup3\n        /* \"#utility.yul\":2163:2176   */\n      add\n        /* \"#utility.yul\":2156:2176   */\n      swap1\n      pop\n        /* \"#utility.yul\":1949:2182   */\n      swap2\n      swap1\n      pop\n      jump\t// out\n        /* \"#utility.yul\":2188:2368   */\n    tag_76:\n        /* \"#utility.yul\":2236:2313   */\n      0x4e487b7100000000000000000000000000000000000000000000000000000000\n        /* \"#utility.yul\":2233:2234   */\n      0x00\n        /* \"#utility.yul\":2226:2314   */\n      mstore\n        /* \"#utility.yul\":2333:2337   */\n      0x11\n        /* \"#utility.yul\":2330:2331   */\n      0x04\n        /* \"#utility.yul\":2323:2338   */\n      mstore\n        /* \"#utility.yul\":2357:2361   */\n      0x24\n        /* \"#utility.yul\":2354:2355   */\n      0x00\n        /* \"#utility.yul\":2347:2362   */\n      revert\n        /* \"#utility.yul\":2374:2554   */\n    tag_71:\n        /* \"#utility.yul\":2422:2499   */\n      0x4e487b7100000000000000000000000000000000000000000000000000000000\n        /* \"#utility.yul\":2419:2420   */\n      0x00\n        /* \"#utility.yul\":2412:2500   */\n      mstore\n        /* \"#utility.yul\":2519:2523   */\n      0x22\n        /* \"#utility.yul\":2516:2517   */\n      0x04\n        /* \"#utility.yul\":2509:2524   */\n      mstore\n        /* \"#utility.yul\":2543:2547   */\n      0x24\n        /* \"#utility.yul\":2540:2541   */\n      0x00\n        /* \"#utility.yul\":2533:2548   */\n      revert\n        /* \"#utility.yul\":2560:2740   */\n    tag_27:\n        /* \"#utility.yul\":2608:2685   */\n      0x4e487b7100000000000000000000000000000000000000000000000000000000\n        /* \"#utility.yul\":2605:2606   */\n      0x00\n        /* \"#utility.yul\":2598:2686   */\n      mstore\n        /* \"#utility.yul\":2705:2709   */\n      0x32\n        /* \"#utility.yul\":2702:2703   */\n      0x04\n        /* \"#utility.yul\":2695:2710   */\n      mstore\n        /* \"#utility.yul\":2729:2733   */\n      0x24\n        /* \"#utility.yul\":2726:2727   */\n      0x00\n        /* \"#utility.yul\":2719:2734   */\n      revert\n        /* \"#utility.yul\":2869:2986   */\n    tag_52:\n        /* \"#utility.yul\":2978:2979   */\n      0x00\n        /* \"#utility.yul\":2975:2976   */\n      dup1\n        /* \"#utility.yul\":2968:2980   */\n      revert\n        /* \"#utility.yul\":2992:3156   */\n    tag_59:\n        /* \"#utility.yul\":3132:3148   */\n      0x5461736b206e6f7420466f756e64000000000000000000000000000000000000\n        /* \"#utility.yul\":3128:3129   */\n      0x00\n        /* \"#utility.yul\":3120:3126   */\n      dup3\n        /* \"#utility.yul\":3116:3130   */\n      add\n        /* \"#utility.yul\":3109:3149   */\n      mstore\n        /* \"#utility.yul\":2992:3156   */\n      pop\n      jump\t// out\n        /* \"#utility.yul\":3162:3284   */\n    tag_48:\n        /* \"#utility.yul\":3235:3259   */\n      tag_85\n        /* \"#utility.yul\":3253:3258   */\n      dup2\n        /* \"#utility.yul\":3235:3259   */\n      tag_65\n      jump\t// in\n    tag_85:\n        /* \"#utility.yul\":3228:3233   */\n      dup2\n        /* \"#utility.yul\":3225:3260   */\n      eq\n        /* \"#utility.yul\":3215:3278   */\n      tag_86\n      jumpi\n        /* \"#utility.yul\":3274:3275   */\n      0x00\n        /* \"#utility.yul\":3271:3272   */\n      dup1\n        /* \"#utility.yul\":3264:3276   */\n      revert\n        /* \"#utility.yul\":3215:3278   */\n    tag_86:\n        /* \"#utility.yul\":3162:3284   */\n      pop\n      jump\t// out\n\n    auxdata: 0xa26469706673582212203febb18166179e64f62a98318eaa7010c553a09900eaf4f294c6a297cc084f6c64736f6c63430008070033\n}\n",
				"bytecode": {
					"linkReferences": {},
					"object": "608060405234801561001057600080fd5b506104e8806100206000396000f3fe608060405234801561001057600080fd5b50600436106100365760003560e01c8063a74764931461003b578063ab755faf14610045575b600080fd5b610043610061565b005b61005f600480360381019061005a91906102da565b610172565b005b6001604051806060016040528060005481526020016040518060400160405280600781526020017f4c696d706961720000000000000000000000000000000000000000000000000081525081526020016040518060400160405280600e81526020017f436f6e206c61206573636f62612e0000000000000000000000000000000000008152508152509080600181540180825580915050600190039060005260206000209060030201600090919091909150600082015181600001556020820151816001019080519060200190610139929190610222565b506040820151816002019080519060200190610156929190610222565b50505060008081548092919061016b90610397565b9190505550565b600061017d82610183565b90505050565b600080600090505b6001805490508110156101e15782600182815481106101ad576101ac61043e565b5b90600052602060002090600302016000015414156101ce578091505061021d565b80806101d990610397565b91505061018b565b506040517f08c379a00000000000000000000000000000000000000000000000000000000081526004016102149061032a565b60405180910390fd5b919050565b82805461022e90610365565b90600052602060002090601f0160209004810192826102505760008555610297565b82601f1061026957805160ff1916838001178555610297565b82800160010185558215610297579182015b8281111561029657825182559160200191906001019061027b565b5b5090506102a491906102a8565b5090565b5b808211156102c15760008160009055506001016102a9565b5090565b6000813590506102d48161049b565b92915050565b6000602082840312156102f0576102ef61046d565b5b60006102fe848285016102c5565b91505092915050565b6000610314600e8361034a565b915061031f82610472565b602082019050919050565b6000602082019050818103600083015261034381610307565b9050919050565b600082825260208201905092915050565b6000819050919050565b6000600282049050600182168061037d57607f821691505b602082108114156103915761039061040f565b5b50919050565b60006103a28261035b565b91507fffffffffffffffffffffffffffffffffffffffffffffffffffffffffffffffff8214156103d5576103d46103e0565b5b600182019050919050565b7f4e487b7100000000000000000000000000000000000000000000000000000000600052601160045260246000fd5b7f4e487b7100000000000000000000000000000000000000000000000000000000600052602260045260246000fd5b7f4e487b7100000000000000000000000000000000000000000000000000000000600052603260045260246000fd5b600080fd5b7f5461736b206e6f7420466f756e64000000000000000000000000000000000000600082015250565b6104a48161035b565b81146104af57600080fd5b5056fea26469706673582212203febb18166179e64f62a98318eaa7010c553a09900eaf4f294c6a297cc084f6c64736f6c63430008070033",
					"opcodes": "PUSH1 0x80 PUSH1 0x40 MSTORE CALLVALUE DUP1 ISZERO PUSH2 0x10 JUMPI PUSH1 0x0 DUP1 REVERT JUMPDEST POP PUSH2 0x4E8 DUP1 PUSH2 0x20 PUSH1 0x0 CODECOPY PUSH1 0x0 RETURN INVALID PUSH1 0x80 PUSH1 0x40 MSTORE CALLVALUE DUP1 ISZERO PUSH2 0x10 JUMPI PUSH1 0x0 DUP1 REVERT JUMPDEST POP PUSH1 0x4 CALLDATASIZE LT PUSH2 0x36 JUMPI PUSH1 0x0 CALLDATALOAD PUSH1 0xE0 SHR DUP1 PUSH4 0xA7476493 EQ PUSH2 0x3B JUMPI DUP1 PUSH4 0xAB755FAF EQ PUSH2 0x45 JUMPI JUMPDEST PUSH1 0x0 DUP1 REVERT JUMPDEST PUSH2 0x43 PUSH2 0x61 JUMP JUMPDEST STOP JUMPDEST PUSH2 0x5F PUSH1 0x4 DUP1 CALLDATASIZE SUB DUP2 ADD SWAP1 PUSH2 0x5A SWAP2 SWAP1 PUSH2 0x2DA JUMP JUMPDEST PUSH2 0x172 JUMP JUMPDEST STOP JUMPDEST PUSH1 0x1 PUSH1 0x40 MLOAD DUP1 PUSH1 0x60 ADD PUSH1 0x40 MSTORE DUP1 PUSH1 0x0 SLOAD DUP2 MSTORE PUSH1 0x20 ADD PUSH1 0x40 MLOAD DUP1 PUSH1 0x40 ADD PUSH1 0x40 MSTORE DUP1 PUSH1 0x7 DUP2 MSTORE PUSH1 0x20 ADD PUSH32 0x4C696D7069617200000000000000000000000000000000000000000000000000 DUP2 MSTORE POP DUP2 MSTORE PUSH1 0x20 ADD PUSH1 0x40 MLOAD DUP1 PUSH1 0x40 ADD PUSH1 0x40 MSTORE DUP1 PUSH1 0xE DUP2 MSTORE PUSH1 0x20 ADD PUSH32 0x436F6E206C61206573636F62612E000000000000000000000000000000000000 DUP2 MSTORE POP DUP2 MSTORE POP SWAP1 DUP1 PUSH1 0x1 DUP2 SLOAD ADD DUP1 DUP3 SSTORE DUP1 SWAP2 POP POP PUSH1 0x1 SWAP1 SUB SWAP1 PUSH1 0x0 MSTORE PUSH1 0x20 PUSH1 0x0 KECCAK256 SWAP1 PUSH1 0x3 MUL ADD PUSH1 0x0 SWAP1 SWAP2 SWAP1 SWAP2 SWAP1 SWAP2 POP PUSH1 0x0 DUP3 ADD MLOAD DUP2 PUSH1 0x0 ADD SSTORE PUSH1 0x20 DUP3 ADD MLOAD DUP2 PUSH1 0x1 ADD SWAP1 DUP1 MLOAD SWAP1 PUSH1 0x20 ADD SWAP1 PUSH2 0x139 SWAP3 SWAP2 SWAP1 PUSH2 0x222 JUMP JUMPDEST POP PUSH1 0x40 DUP3 ADD MLOAD DUP2 PUSH1 0x2 ADD SWAP1 DUP1 MLOAD SWAP1 PUSH1 0x20 ADD SWAP1 PUSH2 0x156 SWAP3 SWAP2 SWAP1 PUSH2 0x222 JUMP JUMPDEST POP POP POP PUSH1 0x0 DUP1 DUP2 SLOAD DUP1 SWAP3 SWAP2 SWAP1 PUSH2 0x16B SWAP1 PUSH2 0x397 JUMP JUMPDEST SWAP2 SWAP1 POP SSTORE POP JUMP JUMPDEST PUSH1 0x0 PUSH2 0x17D DUP3 PUSH2 0x183 JUMP JUMPDEST SWAP1 POP POP POP JUMP JUMPDEST PUSH1 0x0 DUP1 PUSH1 0x0 SWAP1 POP JUMPDEST PUSH1 0x1 DUP1 SLOAD SWAP1 POP DUP2 LT ISZERO PUSH2 0x1E1 JUMPI DUP3 PUSH1 0x1 DUP3 DUP2 SLOAD DUP2 LT PUSH2 0x1AD JUMPI PUSH2 0x1AC PUSH2 0x43E JUMP JUMPDEST JUMPDEST SWAP1 PUSH1 0x0 MSTORE PUSH1 0x20 PUSH1 0x0 KECCAK256 SWAP1 PUSH1 0x3 MUL ADD PUSH1 0x0 ADD SLOAD EQ ISZERO PUSH2 0x1CE JUMPI DUP1 SWAP2 POP POP PUSH2 0x21D JUMP JUMPDEST DUP1 DUP1 PUSH2 0x1D9 SWAP1 PUSH2 0x397 JUMP JUMPDEST SWAP2 POP POP PUSH2 0x18B JUMP JUMPDEST POP PUSH1 0x40 MLOAD PUSH32 0x8C379A000000000000000000000000000000000000000000000000000000000 DUP2 MSTORE PUSH1 0x4 ADD PUSH2 0x214 SWAP1 PUSH2 0x32A JUMP JUMPDEST PUSH1 0x40 MLOAD DUP1 SWAP2 SUB SWAP1 REVERT JUMPDEST SWAP2 SWAP1 POP JUMP JUMPDEST DUP3 DUP1 SLOAD PUSH2 0x22E SWAP1 PUSH2 0x365 JUMP JUMPDEST SWAP1 PUSH1 0x0 MSTORE PUSH1 0x20 PUSH1 0x0 KECCAK256 SWAP1 PUSH1 0x1F ADD PUSH1 0x20 SWAP1 DIV DUP2 ADD SWAP3 DUP3 PUSH2 0x250 JUMPI PUSH1 0x0 DUP6 SSTORE PUSH2 0x297 JUMP JUMPDEST DUP3 PUSH1 0x1F LT PUSH2 0x269 JUMPI DUP1 MLOAD PUSH1 0xFF NOT AND DUP4 DUP1 ADD OR DUP6 SSTORE PUSH2 0x297 JUMP JUMPDEST DUP3 DUP1 ADD PUSH1 0x1 ADD DUP6 SSTORE DUP3 ISZERO PUSH2 0x297 JUMPI SWAP2 DUP3 ADD JUMPDEST DUP3 DUP2 GT ISZERO PUSH2 0x296 JUMPI DUP3 MLOAD DUP3 SSTORE SWAP2 PUSH1 0x20 ADD SWAP2 SWAP1 PUSH1 0x1 ADD SWAP1 PUSH2 0x27B JUMP JUMPDEST JUMPDEST POP SWAP1 POP PUSH2 0x2A4 SWAP2 SWAP1 PUSH2 0x2A8 JUMP JUMPDEST POP SWAP1 JUMP JUMPDEST JUMPDEST DUP1 DUP3 GT ISZERO PUSH2 0x2C1 JUMPI PUSH1 0x0 DUP2 PUSH1 0x0 SWAP1 SSTORE POP PUSH1 0x1 ADD PUSH2 0x2A9 JUMP JUMPDEST POP SWAP1 JUMP JUMPDEST PUSH1 0x0 DUP2 CALLDATALOAD SWAP1 POP PUSH2 0x2D4 DUP2 PUSH2 0x49B JUMP JUMPDEST SWAP3 SWAP2 POP POP JUMP JUMPDEST PUSH1 0x0 PUSH1 0x20 DUP3 DUP5 SUB SLT ISZERO PUSH2 0x2F0 JUMPI PUSH2 0x2EF PUSH2 0x46D JUMP JUMPDEST JUMPDEST PUSH1 0x0 PUSH2 0x2FE DUP5 DUP3 DUP6 ADD PUSH2 0x2C5 JUMP JUMPDEST SWAP2 POP POP SWAP3 SWAP2 POP POP JUMP JUMPDEST PUSH1 0x0 PUSH2 0x314 PUSH1 0xE DUP4 PUSH2 0x34A JUMP JUMPDEST SWAP2 POP PUSH2 0x31F DUP3 PUSH2 0x472 JUMP JUMPDEST PUSH1 0x20 DUP3 ADD SWAP1 POP SWAP2 SWAP1 POP JUMP JUMPDEST PUSH1 0x0 PUSH1 0x20 DUP3 ADD SWAP1 POP DUP2 DUP2 SUB PUSH1 0x0 DUP4 ADD MSTORE PUSH2 0x343 DUP2 PUSH2 0x307 JUMP JUMPDEST SWAP1 POP SWAP2 SWAP1 POP JUMP JUMPDEST PUSH1 0x0 DUP3 DUP3 MSTORE PUSH1 0x20 DUP3 ADD SWAP1 POP SWAP3 SWAP2 POP POP JUMP JUMPDEST PUSH1 0x0 DUP2 SWAP1 POP SWAP2 SWAP1 POP JUMP JUMPDEST PUSH1 0x0 PUSH1 0x2 DUP3 DIV SWAP1 POP PUSH1 0x1 DUP3 AND DUP1 PUSH2 0x37D JUMPI PUSH1 0x7F DUP3 AND SWAP2 POP JUMPDEST PUSH1 0x20 DUP3 LT DUP2 EQ ISZERO PUSH2 0x391 JUMPI PUSH2 0x390 PUSH2 0x40F JUMP JUMPDEST JUMPDEST POP SWAP2 SWAP1 POP JUMP JUMPDEST PUSH1 0x0 PUSH2 0x3A2 DUP3 PUSH2 0x35B JUMP JUMPDEST SWAP2 POP PUSH32 0xFFFFFFFFFFFFFFFFFFFFFFFFFFFFFFFFFFFFFFFFFFFFFFFFFFFFFFFFFFFFFFFF DUP3 EQ ISZERO PUSH2 0x3D5 JUMPI PUSH2 0x3D4 PUSH2 0x3E0 JUMP JUMPDEST JUMPDEST PUSH1 0x1 DUP3 ADD SWAP1 POP SWAP2 SWAP1 POP JUMP JUMPDEST PUSH32 0x4E487B7100000000000000000000000000000000000000000000000000000000 PUSH1 0x0 MSTORE PUSH1 0x11 PUSH1 0x4 MSTORE PUSH1 0x24 PUSH1 0x0 REVERT JUMPDEST PUSH32 0x4E487B7100000000000000000000000000000000000000000000000000000000 PUSH1 0x0 MSTORE PUSH1 0x22 PUSH1 0x4 MSTORE PUSH1 0x24 PUSH1 0x0 REVERT JUMPDEST PUSH32 0x4E487B7100000000000000000000000000000000000000000000000000000000 PUSH1 0x0 MSTORE PUSH1 0x32 PUSH1 0x4 MSTORE PUSH1 0x24 PUSH1 0x0 REVERT JUMPDEST PUSH1 0x0 DUP1 REVERT JUMPDEST PUSH32 0x5461736B206E6F7420466F756E64000000000000000000000000000000000000 PUSH1 0x0 DUP3 ADD MSTORE POP JUMP JUMPDEST PUSH2 0x4A4 DUP2 PUSH2 0x35B JUMP JUMPDEST DUP2 EQ PUSH2 0x4AF JUMPI PUSH1 0x0 DUP1 REVERT JUMPDEST POP JUMP INVALID LOG2 PUSH5 0x6970667358 0x22 SLT KECCAK256 EXTCODEHASH 0xEB 0xB1 DUP2 PUSH7 0x179E64F62A9831 DUP15 0xAA PUSH17 0x10C553A09900EAF4F294C6A297CC084F6C PUSH5 0x736F6C6343 STOP ADDMOD SMOD STOP CALLER "
				},
				"gasEstimates": {
					"creation": {
						"codeDepositCost": "251200",
						"executionCost": "294",
						"totalCost": "251494"
					},
					"external": {
						"createTask()": "infinite",
						"readTask(uint256)": "infinite"
					},
					"internal": {
						"findIndex(uint256)": "infinite"
					}
				},
				"methodIdentifiers": {
					"createTask()": "a7476493",
					"readTask(uint256)": "ab755faf"
				}
			},
			"storageLayout": {
				"storage": [
					{
						"astId": 3,
						"contract": "contracts/TaskContract.sol:TaskContract",
						"label": "nextId",
						"offset": 0,
						"slot": "0",
						"type": "t_uint256"
					},
					{
						"astId": 14,
						"contract": "contracts/TaskContract.sol:TaskContract",
						"label": "tasks",
						"offset": 0,
						"slot": "1",
						"type": "t_array(t_struct(Task)10_storage)dyn_storage"
					}
				],
				"types": {
					"t_array(t_struct(Task)10_storage)dyn_storage": {
						"base": "t_struct(Task)10_storage",
						"encoding": "dynamic_array",
						"label": "struct TaskContract.Task[]",
						"numberOfBytes": "32"
					},
					"t_string_storage": {
						"encoding": "bytes",
						"label": "string",
						"numberOfBytes": "32"
					},
					"t_struct(Task)10_storage": {
						"encoding": "inplace",
						"label": "struct TaskContract.Task",
						"members": [
							{
								"astId": 5,
								"contract": "contracts/TaskContract.sol:TaskContract",
								"label": "id",
								"offset": 0,
								"slot": "0",
								"type": "t_uint256"
							},
							{
								"astId": 7,
								"contract": "contracts/TaskContract.sol:TaskContract",
								"label": "name",
								"offset": 0,
								"slot": "1",
								"type": "t_string_storage"
							},
							{
								"astId": 9,
								"contract": "contracts/TaskContract.sol:TaskContract",
								"label": "description",
								"offset": 0,
								"slot": "2",
								"type": "t_string_storage"
							}
						],
						"numberOfBytes": "96"
					},
					"t_uint256": {
						"encoding": "inplace",
						"label": "uint256",
						"numberOfBytes": "32"
					}
				}
			},
			"userdoc": {
				"kind": "user",
				"methods": {},
				"version": 1
			}
		}
	}
}